:100000000C9403050C9434050C9434050C943405BD
:100010000C9434050C9434050C9434050C9434057C
:100020000C9434050C9434050C9434050C9434056C
:100030000C9434050C9434050C9434050C9434055C
:100040000C9434050C9434050C9434050C9434054C
:100050000C9436E80C9434050C9434050C9411E798
:100060000C9434050C94C4D40C94FAD40C94340538
:100070000C9434050C9434050C9434050C9434051C
:100080000C9434050C9434050C9434050C9434050C
:100090000C945BD50C9491D50C9434050C943405D8
:1000A0000C9434050C9434050C9434050C943405EC
:1000B0000C9434050C9434050C9434050C943405DC
:1000C0000C9434050C9434050C9434050C94F2D53E
:1000D0000C9428D60C9434050C9489D60C94BFD675
:1000E0000C943405D70AEA0A010B1C0B3B0B610B7D
:1000F0008F0B6A95CD951B964896AF964D970398B2
:100100000499DF98E398E798EB98EF98F398FD9CB3
:10011000269D519D7C9DA79DD29DFD9D0C942CF10B
:100120000C9466760C94B7EE0D9416170C94770A1F
:100130000C94EFFE0C94C3D40C948D3E0C9475AECD
:100140000D944E110D9460210D94CE0A0D941D173F
:100150000C94E6400D9462240C94FF450D942D06FA
:100160000C94CAD30D94A4220D94EE1B0D94710827
:100170000C9465F50D9467080C94B3F90C94A5F9EB
:100180000D94D40E0C94ECCE0C949E2A0D941F1753
:100190000C947A6B0C94DBCE0C941BF10C94BDF98F
:1001A0000C9456CB0C94FA2A0C94C35E0C94DF98F2
:1001B0000C9488C50C9406760C947BD20C94E1F8D0
:1001C0000C9403470C9467400D94A2030D94020015
:1001D0000C949BC90C94AFCE0D945B100C9408F753
:1001E0000C94096E0C94B4640D9459150D9442014D
:1001F0000C94A5120C94FEF60C9474620C94780A7C
:100200000D94C40A0D946F0B0C94F1FF0C94DECE88
:100210000D94C11B0D9424040C945BB00C94EF98C6
:100220000D9412230C949CF00D941C060C945E46C5
:100230000C94D5F90D9492050D94151D0C9420D7AE
:100240000C9492F80D9445060D9418250D94A42352
:100250000C94BCEE0C94C6610C94F4120C946A9548
:100260000D9431010C945DDD0C9489F20C94787638
:100270000C9424FE0C9457A10D94FB130D945B2455
:100280000C9462FC0C943FED0D946E170D94870551
:100290000C94F1650D944C010C94403A0D942B0D87
:1002A0000C94DFFE0C9486F30C94CBBC0C9458A1F8
:1002B0000C9416480C9439EF0D9435210C94E5BC40
:1002C0000C94E9730C94136E0C94529E0C94B4131A
:1002D0000D94F31B0C949D710D943E150C945FA12D
:1002E0000C94F09B0C94AF130C9449ED0C9438BB18
:1002F0000C943AD30C942CBB0D94E50E0C944CF654
:100300000C94D5EC0C94AF9C0C94DC650C94AE1260
:100310000D94A11A0D9417140C9467F50C948DF399
:100320000C94D0BC0C9415BB0C94D0650C9490F636
:100330000C94ACF90C9454A10C9404990C945C5555
:100340000C9403980D9413040C9414540D94AD2341
:100350000C9456A10D948A190D9478080C94610B95
:100360000C9446630C942C260D94760B0D94181760
:100370000D94FB070D943B010C94386D0D94680BA4
:100380000D944C170C94E0CE0C94492A0D944F21F7
:100390000C94FFCE0C945CD60C949EF30C9443FC0E
:1003A0000C94B3130C94A9130C9411F70C9484FBC4
:1003B0000C94D4BC0C94EB980C94B9F30C9484F387
:1003C0000C94BBD50C9488860D94870B0D943E211C
:1003D0000D94E2100C945F730C9474D20D94A623C8
:1003E0000D9489050C9456260D9437210C94CD95C7
:1003F0000C94AFF30C9448960C94CEF90D942A010A
:100400000D94980B0C9438F60C9496710D94E609A3
:100410000D94F2070C944AEF0C9491990D942E04CC
:100420000C94C6F80C9474880C947CF80C94EC949E
:100430000D946A150D94910B0C9421EF0C94EB39EB
:100440000C94E7650C941C0B0C94222E0C94C46243
:100450000C94A7710C9405E70C949BF80D94FA1B6F
:100460000C9450ED0C94F7F60D94080B0C94CEEC14
:100470000C94D5650C947D400C946CF50C948F0B0A
:100480000C944AFC0C949EF00C947C9D0D947F1768
:100490000D9460150D94DB090D941D040D946100FD
:1004A0000C94A6F20C9444CA0C94010B0D943015D4
:1004B0000C94CECE0C945C760C94D0B70C947A0A43
:1004C0000C9443EF0C94F66A0D94B50E0C941B96A5
:1004D0000D94EC1B0C9485D20C94FBFF0D942E15FF
:1004E0000C946EF50D94531C0C9448FC0C949EC90E
:1004F0000C9422FE0C944FA10C9463F50C940E48BE
:100500000C948B410D9435150C9417D40D94F6076B
:100510000C94EA0A0C9473FC0C94C0D40C9487F2EB
:100520000C9476050D9453010C943CF70D9409003E
:100530000C949CC90C94E90B0D94CD0E0C94E5CE53
:100540000D945D100C94BEEE0D94B7230D948208AB
:100550000D943E060C9456850D941C1D0C94FD9D27
:100560000D94ED090C94E8FE0C94E0650C94D865AC
:100570000C9441FC0C9440440D946D0B0C9443CAB4
:100580000D94261D0C9451FC0C9438ED0C945CD306
:100590000C94E42B0D94A0030C94E1FF0C94FF9AAF
:1005A0000C9494120C942ED50C940D480D94581163
:1005B0000D94E4100D94DF090C9432EF0D940D1C92
:1005C0000C94C3550D94240E0D940D140C94674493
:1005D0000D94A7030C94A3F70C94B7F20C94D8CE07
:1005E0000D9448150D9428010C94026E0C94A0F003
:1005F0000D9414230C9491870C94910A0C94E6FEAC
:100600000C94A7F00C94EA420C94E1FE0C946E76E4
:100610000C94CE620C945D6C0C9488F80C94850755
:100620000C9452D60D9459240D941D0E0C94D2BCEA
:100630000C94973E0C94C4F90C9405480D941E1428
:100640000C94CE2B0C94E9D60C947C760C94064832
:100650000D94041C0C94D3EC0C94D7650C9497F374
:100660000C94BA750C943B0B0C940AF10C94FDFF9E
:100670000C94B0980D9437150C94292B0C94D3BC82
:100680000C941F2E0C941FCA0D941C000C946F2503
:100690000C9472710C944D970C94B6130D94000346
:1006A0000C9486FB0C94DBBC0D9460080C94B76131
:1006B0000C9458C60C948D120C941ECA0D944821AB
:1006C0000C9447730C946C260C9485F20D941300D3
:1006D0000C949DC90C94F0F60D9446000C94A0C99E
:1006E0000D94A9030C94A5F00C942A2B0D94BA0E2A
:1006F0000D9421170D944F150C942EBB0C94F2F60B
:100700000C94B99C0C9461760D9423010C949C3A42
:100710000C94E3980C9422BB0C9461ED0C94519DC5
:100720000C9426260C949F9A0C948F120D94F61814
:100730000D94FD070C942ED30D94BC0E0D942D0D2D
:100740000C9480FF0D941B0E0D9437190C94D29DC0
:100750000D94C30E0D94CB0D0D94381C0C945AEDD2
:100760000D946E240D9430190C940F480C94B741DD
:100770000C94D70A0C94C5D50C9438400C9464762C
:100780000D9435040C9456F60C9429260D94DE0E27
:100790000C94AF960C9449D20D94160E0C9435E837
:1007A0000D9423060D94B00A0D94E21B0C943B7239
:1007B0000C9481390D9489080D94F4070D94141745
:1007C0000D94A6220C9448D30D9485110C94B5EE8B
:1007D0000D94DD090C9466840C94B3EE0C94459949
:1007E0000D9406140D9402030C9481F80C946CFC87
:1007F0000C946B990C949B120C9475F50C94FD9CC5
:100800000D946C240D9459210D948B050D94340690
:100810000D94800B0C94F3980C947AF80C948E053C
:100820000C94863E0C94269D0D9422170C94AAF9E4
:100830000C948BFF0D9417250C947FF30D94900569
:100840000C94A79D0C9433F10C9467760D942C15A1
:100850000C9472050C945BFC0D9447110C9428EFDA
:100860000C94A8F30D941A250D9475170C94F3D6D7
:100870000C9424D50C940B480C9411F10C94A57392
:100880000C94D9120C94F6CE0C9471440D94E40996
:100890000D9430210C9422F10C9465760C946376BF
:1008A0000D94A01A0C946EF70C94ADF20C944CB10C
:1008B0000C94E7980D945E1D0D940C040C941BBBD6
:1008C0004E414E494E495459494E46CDCCCC3D0A35
:1008D000D7233C17B7D13877CC2B329595E6241F18
:1008E000B14F0A000020410000C84200401C4620D1
:1008F000BCBE4CCA1B0E5AAEC59D7400407A10F3A4
:100900005A00A0724E18090010A5D4E80000E8763D
:1009100048170000E40B54020000CA9A3B00000094
:10092000E1F505000080969800000040420F0000AD
:1009300000A08601000000102700000000E803006E
:100940000000006400000000000A00000000000138
:1009500000000000002C76D888DC674F0823DFC138
:10096000DFAE59E1B1B796E5E3E453C63AE65199F3
:100970007696E8E6C28426EB898C9B62ED407C6F1C
:10098000FCEFBC9C9F40F2BAA56FA5F490055A2AD3
:10099000F75C936B6CF9676DC11BFCE0E40D47FEDF
:1009A000F520E6B500D0ED902E03009435770500D4
:1009B00080841E080000204E0A000000C80C33335B
:1009C00033330F986E12831141EF8D2114893BE66A
:1009D0005516CFFEE6DB18D1844B381BF77C1D90F3
:1009E0001DA4BBE424203284725E228100C9F1245C
:1009F000ECA1E53D270072058E052ED5C5D55CD648
:100A0000F3D67605850711241FBECFEFD1E2DEBFF6
:100A1000CDBF00E00CBF18E2A0E0B2E0E0E5F7E6F1
:100A200002E00BBF02C007900D92AE3BB107D9F7B1
:100A300028ECAEEBB8E201C01D92A23CB207E1F790
:100A400014E0C1E0D5E000E006C021970109802F45
:100A5000FE010F940528CB3FD10780E00807A9F7D6
:100A60000E9436050D9496330C940000CF92DF92CD
:100A7000EF92FF920F931F938EEB98E20E94F90C76
:100A800026E040E855E260E070E08BE296EC0E94E0
:100A900039D460ED77E080E090E00E948CE78BE253
:100AA00096EC0E94B8CB86E092E00E9496C9C12CD9
:100AB000D12CE12CF12C00E010E020E030E040E00F
:100AC00050E060E070E082E392E00E9470C90E9412
:100AD000F20580E090E01F910F91FF90EF90DF9082
:100AE000CF9008958EEB98E20C9418CA8EEB98E2A2
:100AF0000C949BC985E695EB0F94E0178AE69CEB76
:100B00000F94E01784E297E40F94E01780E49AE9E9
:100B10000F94E0178FEE97E50D94E0170F931F9356
:100B200002E010E020E030E048E252E06FE472E0E2
:100B30008FE693EC0E94876E04E010E020E030E046
:100B400048E152E065E572E08AE69CEB0E9425BC34
:100B500004E010E020E030E048E052E06CE572E0B4
:100B600085E695EB0E9425BC62E672E080E49AE996
:100B70000E94099B67E672E08FEE97E50E94D061C4
:100B80006BE672E084E297E40E94AF7363E772E081
:100B90008CE79AE30E9423436AE772E088E29FE2CF
:100BA0000E94EE2B6EE772E08BE19EE20E94A53E72
:100BB00024E630E040E050E066E872E089E09DE243
:100BC0000E94874021E030E040E050E06DE872E0B4
:100BD0008FE899E20E94762680EC98E21F910F91AF
:100BE0000C94B4D26F927F928F929F92AF92BF92E9
:100BF000CF92DF92EF92FF920F931F93CF93DF93E9
:100C0000CDB7DEB7C25CD1400FB6F894DEBF0FBEE1
:100C1000CDBF8FE693EC0E94346F00E010E09801A6
:100C20004AE050E060E070E08AE69CEB0E94C4BCC1
:100C300001E010E020E030E04AE050E060E070E0E9
:100C400085E695EB0E94C4BC00E010E098014AE004
:100C500050E060E070E080E49AE90E94E99B00E0E7
:100C600010E0980144E150E060E070E08FEE97E51D
:100C70000E946D6200E010E098014AE050E060E000
:100C800070E084E297E40E94DF7300E010E09801D6
:100C900049E150E060E070E08CE79AE30E947D4318
:100CA00040E050E0BA0188E29FE20E94472C40E019
:100CB00050E0BA018BE19EE20E94BF3E00E012ECE0
:100CC00021E030E040E050E0BA018FE899E20E9474
:100CD000C0260E940E0884E297E40E94157B80E4FF
:100CE0009AE90E9430A58CE79AE30E94E64B83E0E4
:100CF000882E912CA12CB12C89829A82AB82BC8245
:100D000095E0C92ED12CE12CF12CCD82DE82EF8230
:100D1000F8868AE69CEB0F945425BC01CE01099617
:100D20000E9429136F968CAE9DAEAEAEBFAE6F978C
:100D3000A396CCAEDDAEEEAEFFAEA39785E695EB07
:100D40000F945425BC01CE018D599F4F0E94291349
:100D5000CB54DF4F88829982AA82BB82C55BD04088
:100D6000C754DF4FC882D982EA82FB82C95BD04078
:100D700084E297E40F945425BC01CE0183549F4F25
:100D80000E942913C15FDE4F88829982AA82BB82AA
:100D9000CF50D140CD5EDE4FC882D982EA82FB823D
:100DA000C351D1408FEE97E50F945425BC01CE017D
:100DB000895E9E4F0E942913C759DE4F888299820F
:100DC000AA82BB82C956D140C359DE4FC882D9829C
:100DD000EA82FB82CD56D14080E49AE90F945425F3
:100DE000BC01CE018F589E4F0E94291313E2E12EC1
:100DF000FF24F39400E010E025E030E040E050E014
:100E0000CE0101963C01BC018CE79AE30E94994314
:100E100089E09DE20E94EC4088248A94982C540139
:100E2000C12C48E2D42EE12CF12C08E710E020E0A0
:100E300030E040E050E0BA018AE69CEB0F9467187E
:100E400007E710E020E030E040E050E0BA0185E63E
:100E500095EB0F94671805E610E020E030E040E0E5
:100E600050E0BA0184E297E40F94671802E610E0BC
:100E700020E030E040E050E0BA0180E49AE90F94CD
:100E8000671801E610E020E030E040E050E0BA01F1
:100E90008FEE97E50F946718C12CD12CE12CF12C23
:100EA00000E010E020E030E040E050E060E070E082
:100EB00082E992E00E9470C980EC98E20E94D6D24A
:100EC0007E019DE3E91A9EEFF90A8AE5E81AF10826
:100ED000C70108960E9494126E147F04B1F7CE5396
:100EE000DE4F0FB6F894DEBF0FBECDBFDF91CF91BE
:100EF0001F910F91FF90EF90DF90CF90BF90AF9038
:100F00009F908F907F906F90089580EC98E20E9460
:100F100074D28FE899E20E94562689E09DE20E94F1
:100F200067408BE19EE20E94863E88E29FE20E943B
:100F3000CE2B8CE79AE30E94404484E297E40E941F
:100F400096718FEE97E50E94746280E49AE90E94A0
:100F5000F09B85E695EB0E941BBB8AE69CEB0E940A
:100F60001BBB8FE693EC0C94026E089548EC50E0A6
:100F700060E070E08AE69CEB0F947A194CE251E055
:100F800060E070E085E695EB0F947A1940E951E056
:100F900060E070E08FEE97E50F947A1944EF51E02E
:100FA00060E070E084E297E40F947A194CE454E036
:100FB00060E070E08CE79AE30F947A1948E755E017
:100FC00060E070E080E49AE90F947A1944EA56E010
:100FD00060E070E08FE693EC0F947A1948E057E0F8
:100FE00060E070E088E29FE20F947A194CE657E0E7
:100FF00060E070E08BE19EE20F947A1940ED57E0DB
:1010000060E070E089E09DE20F947A1944E358E0D3
:1010100060E070E08FE899E20D947A190E94B607BB
:1010200040E050E0BA0180E49AE90E9469A19C0185
:1010300040E050E0BA018AE69CEB0E94F3BE40E03B
:1010400050E0BA018FEE97E50E94C8669C0140E02F
:1010500050E0BA018AE69CEB0E948BBE40E050E073
:10106000BA0188E29FE20E94DF2E9C0140E050E03E
:10107000BA018AE69CEB0E9423BE40E050E0BA0130
:101080008BE19EE20E94363F9C0141E050E060E02F
:1010900070E08AE69CEB0E9423BE40E050E0BA017B
:1010A0008CE79AE30E9420489C0140E050E0BA019E
:1010B0008AE69CEB0E9457BE40E050E0BA0180E413
:1010C0009AE90E9469A19C0140E050E0BA0185E6DE
:1010D00095EB0E94F3BE40E050E0BA018FEE97E539
:1010E0000E94C8669C0140E050E0BA0185E695EB9D
:1010F0000E948BBE40E050E0BA018FEE97E50E945F
:1011000022679C0140E050E0BA0185E695EB0E9421
:1011100023BE40E050E0BA018CE79AE30E944D48BC
:101120009C0141E050E060E070E085E695EB0E94B4
:1011300023BE41E050E060E070E08CE79AE30E945B
:1011400020489C0140E050E0BA0185E695EB0E9402
:1011500057BE43E050E060E070E08CE79AE30E9405
:1011600020489C0140E050E0BA018FEE97E50E94D4
:10117000B06740E050E0BA0188E29FE20E94582E3A
:101180009C0140E050E0BA018FEE97E50E947C6739
:1011900041E050E060E070E084E297E40E948C76E9
:1011A0009C0140E050E0BA0184E297E40E943D785F
:1011B00040E050E0BA0180E49AE90E94C3A19C019A
:1011C00040E050E0BA0184E297E40E946D7740E08D
:1011D00050E0BA0184E297E40E9440779C0141E02C
:1011E00050E060E070E084E297E40E946D7740E0B8
:1011F00050E0BA018CE79AE30E947A489C0142E0F1
:1012000050E060E070E084E297E40E946D7740E097
:1012100050E0BA0184E297E40E94B9769C0140E074
:1012200050E0BA0184E297E40E94097840E050E07F
:10123000BA0180E49AE90E9469A19C0140E050E073
:10124000BA0184E297E40E94D97840E050E0BA0104
:101250008FEE97E50E94C8669C0140E050E0BA011D
:1012600084E297E40E94717842E050E060E070E030
:101270008CE79AE30E9420489C0140E050E0BA01CC
:1012800084E297E40E94D57742E050E060E070E0AD
:1012900084E297E40E948C769C0140E050E0BA0121
:1012A0008CE79AE30E94424940E050E0BA0184E2B0
:1012B00097E40E94B9769C0140E050E0BA018CE7C7
:1012C0009AE30E940E4940E050E0BA0180E49AE9B6
:1012D0000E9469A19C0140E050E0BA018CE79AE3CA
:1012E0000E94DE4940E050E0BA018FEE97E50E948F
:1012F000C8669C0140E050E0BA018CE79AE30E9486
:10130000764940E050E0BA018AE69CEB0E94F6BDC7
:101310009C0140E050E0BA018CE79AE30E94A648A5
:1013200040E050E0BA0185E695EB0E94F6BD9C01D5
:1013300041E050E060E070E08CE79AE30E94A6484C
:1013400040E050E0BA0184E297E40E9413779C01E8
:1013500042E050E060E070E08CE79AE30E94A6482B
:1013600040E050E0BA018FEE97E50E944F679C0184
:1013700043E050E060E070E08CE79AE30E94A6480A
:1013800040E050E0BA0180E49AE90E9496A19C01F5
:1013900044E050E060E070E08CE79AE30E94A648E9
:1013A00040E050E0BA0184E297E40E948C769C0110
:1013B00040E050E0BA0180E49AE90E94C0A240E017
:1013C00050E0BA0184E297E40E94B9769C0140E0C3
:1013D00050E0BA0180E49AE90E948CA240E050E01B
:1013E000BA0180E49AE90E9469A19C0140E050E0C2
:1013F000BA0180E49AE90E9428A344E050E060E04A
:1014000070E08CE79AE30E9420489C0140E050E0A5
:10141000BA0180E49AE90E9458A240E050E0BA0183
:1014200088E29FE20E94582E9C0140E050E0BA0101
:1014300080E49AE90E94F0A140E050E0BA018AE617
:101440009CEB0E94C9BD9C0140E050E0BA018FE6D0
:1014500093EC0E94666F40E050E0BA0185E695EBA0
:101460000E94C9BD9C0141E050E060E070E08FE661
:1014700093EC0E94666F40E050E0BA0184E297E48A
:101480000E94E6769C0140E050E0BA0188E29FE2CB
:101490000E94DC2F40E050E0BA018FE899E20E9400
:1014A0005F279C0140E050E0BA0188E29FE20E9481
:1014B000783040E050E0BA018FE899E20E948C2732
:1014C0009C0140E050E0BA0188E29FE20E94AC300B
:1014D00040E050E0BA018FE693EC0E94396F9C0126
:1014E00040E050E0BA0189E09DE20C94C1410895CA
:1014F0000F94042B0C940DE79F938F938BE898E245
:101500009F938F93EAEBF8EC85818F9384818F937F
:101510000F94772C0F900F900F900F900F900F90CB
:101520000895CB010C947C0A2F923F924F925F92C8
:101530006F927F928F929F92AF92BF92CF92DF92E3
:10154000EF92FF920F931F93CF93DF93CDB7DEB748
:101550002B970FB6F894DEBF0FBECDBFA9A1BAA1DD
:101560005BA04CA0EDA1E983EEA1EA83EFA1EB83A0
:1015700038A4E9A5EC83EAA5ED83EBA5EE83ECA501
:10158000EF83EDA5E887EEA5E987EFA5EA87E8A94F
:10159000EB8769A87AA80730110508F0FAC0282E51
:1015A000F8018827EE58FF4F8F4F0D9405287F9341
:1015B0006F935F934F939F932F9281EB92E09F9352
:1015C0008F938CA98F939BA99F937F926F920F9477
:1015D0009B2CDAC0FF92EF92DF92CF927F936F93B2
:1015E0005F934F939F932F928DEC92E09F938F93F5
:1015F0009CA99F93EBA9EF937F926F920F949B2CE2
:10160000C3C0BF92AF929F928F92FF92EF92DF92F0
:10161000CF927F936F935F934F939F932F928BEE15
:1016200092E09F938F939CA99F93EBA9EF937F9256
:101630006F920F949B2CA8C04F925F92BF93AF9371
:10164000BF92AF929F928F92FF92EF92DF92CF92D2
:101650007F936F935F934F939F932F928CE093E0D0
:101660009F938F939CA99F93EBA9EF937F926F9287
:101670000F949B2C89C03F92EB81EF938A818F93CB
:10168000E981EF934F925F92BF93AF93BF92AF9276
:101690009F928F92FF92EF92DF92CF927F936F9300
:1016A0005F934F939F932F9280E393E09F938F9349
:1016B0008CA98F939BA99F937F926F920F949B2CE1
:1016C00063C0EF81EF938E818F93ED81EF938C81D7
:1016D0008F933F92EB81EF938A818F93E981EF9310
:1016E0004F925F92BF93AF93BF92AF929F928F92B0
:1016F000FF92EF92DF92CF927F936F935F934F931E
:101700009F932F9287E593E09F938F938CA98F935C
:101710009BA99F937F926F920F949B2C35C0EB8572
:10172000EF938A858F93E985EF9388858F93EF8177
:10173000EF938E818F93ED81EF938C818F933F9206
:10174000EB81EF938A818F93E981EF934F925F92C0
:10175000BF93AF93BF92AF929F928F92FF92EF92FF
:10176000DF92CF927F936F935F934F939F932F92CC
:1017700081E893E09F938F938CA98F939BA99F936C
:101780007F926F920F949B2C0FB6F894DEBF0FBE22
:10179000CDBF8BA99CA9680E791EF30131971082E9
:1017A0002B960FB6F894DEBF0FBECDBFDF91CF9161
:1017B0001F910F91FF90EF90DF90CF90BF90AF906F
:1017C0009F908F907F906F905F904F903F902F9061
:1017D00008952F923F924F925F926F927F928F92D5
:1017E0009F92AF92BF92CF92DF92EF92FF920F93B0
:1017F0001F93CF93DF93CDB7DEB7C850D1400FB65C
:10180000F894DEBF0FBECDBF3C01CB01BA01A901E8
:101810009801870176016501CE5DDE4FA881C25235
:10182000D140CF5FDE4FA883C150D140CD5DDE4FA8
:10183000B881C352D140CE5FDE4FB883C250D14091
:10184000CC5DDE4FE881C452D140CD5FDE4FE883EE
:10185000C350D140CB5DDE4FF881C552D140CC5F43
:10186000DE4FF883C450D140CA5DDE4FA881C65216
:10187000D140CB5FDE4FA883C550D140C95DDE4F5C
:10188000B881C752D140CA5FDE4FB883C650D1403D
:10189000C85DDE4FE881C852D140C95FDE4FE883A2
:1018A000C750D140C75DDE4FF881C952D140C85FF3
:1018B000DE4FF883C850D140C65DDE4FA881CA52C2
:1018C000D140C55DDE4FB881CB52D140C45DDE4F03
:1018D000B880CC52D140C35DDE4FA880CD52D140FC
:1018E000C25DDE4F9880CE52D140C15DDE4F888010
:1018F000CF52D140C05DDE4F3880C053D140CF5C65
:10190000DE4F2880C153D1401F921F92552453941B
:101910005F921F92FE0131962F01FF93EF932F925A
:101920003F928F929F92AF92BF92BF93AF93C85F47
:10193000DE4FF881C850D140FF93C95FDE4FA881C8
:10194000C750D140AF93CA5FDE4FB881C650D14077
:10195000BF93CB5FDE4FE881C550D140EF93CC5FA2
:10196000DE4FF881C450D140FF93CD5FDE4FA88198
:10197000C350D140AF93CE5FDE4FB881C250D1404B
:10198000BF93CF5FDE4FE881C150D140EF93C25E7D
:10199000DE4F88809980AA80BB80CE51D1400E94C2
:1019A000940AD301ED91FC910680F781E02DB201FC
:1019B000C30119950FB6F894DEBF0FBECDBFC85F47
:1019C000DE4F0FB6F894DEBF0FBECDBFDF91CF91D3
:1019D0001F910F91FF90EF90DF90CF90BF90AF904D
:1019E0009F908F907F906F905F904F903F902F903F
:1019F0000895909312C6809311C60895AF92BF9236
:101A0000CF92DF92EF92FF920F931F93CF93DF93CA
:101A1000CDB7DEB7DA950FB6F894DEBF0FBECDBFF7
:101A20009A01A09111C6B09112C61097F1F47F935C
:101A30006F933F934F939F938F9381EB92E09F938C
:101A40008F9381E08F931F928E010F5F1F4F1F9323
:101A50000F930F949B2CC050DF4F1882C050D14081
:101A6000C8010E947C0A0F94042BED91FC91119700
:101A70001F921F921F921F921F921F921F921F92DE
:101A80001F921F921F921F921F921F921F921F92CE
:101A90001F921F921F921F920480F581E02DA12CAE
:101AA000B12C6501E12CF12C8701AB01BC01CD010A
:101AB0001995809111C6909112C6DC01ED91FC91AF
:101AC0000084F185E02D19950FB6F894DEBF0FBEA6
:101AD000CDBF60E070E0CB01D3950FB6F894DEBFC8
:101AE0000FBECDBFDF91CF911F910F91FF90EF906F
:101AF000DF90CF90BF90AF900895AF92BF92CF92FA
:101B0000DF92EF92FF920F931F93CF93DF93CDB7A6
:101B1000DEB7DA950FB6F894DEBF0FBECDBFA09149
:101B200011C6B09112C6109711F53F932F931F93D2
:101B30000F937F936F935F934F939F938F938DEC4E
:101B400092E09F938F9381E08F931F928E010F5F9E
:101B50001F4F1F930F930F949B2CC050DF4F188281
:101B6000C050D140C8010E947C0A0F94042BED9113
:101B7000FC9111971F921F921F921F921F921F920A
:101B80001F921F921F921F921F921F921F921F92CD
:101B90001F921F921F921F921F921F920480F58125
:101BA000E02D58016901E12CF12C8701E3949A01A1
:101BB000AB01BC01CD011995809111C6909112C65F
:101BC000DC01ED91FC910084F185E02D19950FB6B3
:101BD000F894DEBF0FBECDBF60E070E0CB01D395BF
:101BE0000FB6F894DEBF0FBECDBFDF91CF911F912E
:101BF0000F91FF90EF90DF90CF90BF90AF9008953E
:101C0000AF92BF92CF92DF92EF92FF920F931F930A
:101C1000CF93DF93CDB7DEB7DA950FB6F894DEBF7A
:101C20000FBECDBFA09111C6B09112C6109731F56D
:101C3000FF92EF92DF92CF923F932F931F930F93D8
:101C40007F936F935F934F939F938F938BEE92E06D
:101C50009F938F9381E08F931F928E010F5F1F4F91
:101C60001F930F930F949B2CC050DF4F1882C050CE
:101C7000D140C8010E947C0A0F94042BED91FC9185
:101C800011971F921F921F921F921F921F921F92D5
:101C90001F921F921F921F921F921F921F921F92BC
:101CA0001F92FF92EF92DF92CF920480F581E02D98
:101CB0005801690112E0E12EF12C00E010E09A01D8
:101CC000AB01BC01CD011995809111C6909112C64E
:101CD000DC01ED91FC910084F185E02D19950FB6A2
:101CE000F894DEBF0FBECDBF60E070E0CB01D395AE
:101CF0000FB6F894DEBF0FBECDBFDF91CF911F911D
:101D00000F91FF90EF90DF90CF90BF90AF9008952C
:101D10008F929F92AF92BF92CF92DF92EF92FF92FB
:101D20000F931F93CF93DF93CDB7DEB7DA950FB63E
:101D3000F894DEBF0FBECDBFA09111C6B09112C600
:101D4000109751F5BF92AF929F928F92FF92EF92B0
:101D5000DF92CF923F932F931F930F937F936F93B5
:101D60005F934F939F938F938CE093E09F938F9318
:101D700081E08F931F928E010F5F1F4F1F930F9370
:101D80000F949B2CC050DF4F1882C050D140C80127
:101D90000E947C0A0F94042BED91FC9111971F92E5
:101DA0001F921F921F921F921F921F921F921F92AB
:101DB0001F921F921F92BF92AF929F928F92FF929B
:101DC000EF92DF92CF920480F581E02D58016901F6
:101DD00013E0E12EF12C00E010E09A01AB01BC0110
:101DE000CD011995809111C6909112C6DC01ED913B
:101DF000FC910084F185E02D19950FB6F894DEBFB3
:101E00000FBECDBF60E070E0CB01D3950FB6F89464
:101E1000DEBF0FBECDBFDF91CF911F910F91FF901D
:101E2000EF90DF90CF90BF90AF909F908F900895EC
:101E30004F925F926F927F928F929F92AF92BF92DA
:101E4000CF92DF92EF92FF920F931F93CF93DF9386
:101E5000CDB7DEB7DA950FB6F894DEBF0FBECDBFB3
:101E6000CC5EDE4F7880C451D140CB5EDE4F6880BF
:101E7000C551D140CA5EDE4F5880C651D140C95EBF
:101E8000DE4F4880C751D140A09111C6B09112C613
:101E9000109771F54F925F926F927F92BF92AF92BF
:101EA0009F928F92FF92EF92DF92CF923F932F9368
:101EB0001F930F937F936F935F934F939F938F9392
:101EC00080E393E09F938F9381E08F931F928E0125
:101ED0000F5F1F4F1F930F930F949B2CC050DF4F2A
:101EE0001882C050D140C8010E947C0A0F94042B74
:101EF000ED91FC9111971F921F921F921F921F92BA
:101F00001F921F921F924F925F926F927F92BF9289
:101F1000AF929F928F92FF92EF92DF92CF920480C6
:101F2000F581E02D5801690114E0E12EF12C00E06B
:101F300010E09A01AB01BC01CD011995809111C649
:101F4000909112C6DC01ED91FC910084F185E02DA9
:101F500019950FB6F894DEBF0FBECDBF60E070E0FC
:101F6000CB01D3950FB6F894DEBF0FBECDBFDF9186
:101F7000CF911F910F91FF90EF90DF90CF90BF9086
:101F8000AF909F908F907F906F905F904F9008954B
:101F90002F923F924F925F926F927F928F929F9279
:101FA000AF92BF92CF92DF92EF92FF920F931F9367
:101FB000CF93DF93CDB7DEB7C450D1400FB6F894BE
:101FC000DEBF0FBECDBFCF5FDE4F8883C150D14093
:101FD000CE5FDE4F9883C250D140C65EDE4FA881EF
:101FE000CA51D140C55EDE4FB881CB51D140C45EED
:101FF000DE4F7880CC51D140C35EDE4F6880CD513A
:10200000D140C25EDE4F5880CE51D140C15EDE4F1E
:102010004880CF51D140C05EDE4F3880C052D140A1
:10202000CF5DDE4F2880C152D140809111C6909182
:1020300012C6009709F041C02F923F924F925F92D3
:102040006F927F92BF93AF93BF92AF929F928F9206
:10205000FF92EF92DF92CF923F932F931F930F93B4
:102060007F936F935F934F93CE5FDE4F8881C25013
:10207000D1408F93CF5FDE4FA881C150D140AF9345
:1020800087E593E09F938F9381E08F931F928E015A
:102090000F5F1F4F1F930F930F949B2CC050DF4F68
:1020A0001882C050D1400FB6F894DEBF0FBECDBF2E
:1020B000C8010E947C0A0F94042BFC010190F0815E
:1020C000E02DCD5FDE4FF983E883C350D1401F92EE
:1020D0001F921F921F922F923F924F925F926F9288
:1020E0007F92BF93AF93BF92AF929F928F92FF92D6
:1020F000EF92DF92CF92CD5FDE4FA881B981C350BE
:10210000D1401496ED91FC9115975801690115E0A5
:10211000E12EF12C00E010E09A01AB01CF5FDE4F21
:102120006881C150D140CE5FDE4F7881C250D1402E
:102130001995809111C6909112C6DC01ED91FC9128
:102140000084F185E02D19950FB6F894DEBF0FBE1F
:10215000CDBF60E070E0CB01CC5FDE4F0FB6F894EE
:10216000DEBF0FBECDBFDF91CF911F910F91FF90CA
:10217000EF90DF90CF90BF90AF909F908F907F9027
:102180006F905F904F903F902F9008952F923F92C5
:102190004F925F926F927F928F929F92AF92BF9277
:1021A000CF92DF92EF92FF920F931F93CF93DF9323
:1021B000CDB7DEB7C850D1400FB6F894DEBF0FBE22
:1021C000CDBFCF5FDE4F8883C150D140CE5FDE4FA1
:1021D0009883C250D140C25EDE4F8881CE51D1403B
:1021E000CD5FDE4F8883C350D140C15EDE4F988102
:1021F000CF51D140CC5FDE4F9883C450D140C05EF8
:10220000DE4FA881C052D140CB5FDE4FA883C550BE
:10221000D140CF5DDE4FB881C152D140CA5FDE4FA1
:10222000B883C650D140CE5DDE4FA881C252D140A6
:10223000CD5DDE4FB881C352D140CC5DDE4F78809A
:10224000C452D140CB5DDE4F6880C552D140CA5DDB
:10225000DE4F5880C652D140C95DDE4F4880C7521C
:10226000D140C85DDE4F3880C852D140C75DDE4FD7
:102270002880C952D140809111C6909112C6009712
:1022800009F059C02F923F924F925F926F927F92C6
:10229000BF93AF93CA5FDE4FE881C650D140EF9342
:1022A000CB5FDE4FF881C550D140FF93CC5FDE4F4E
:1022B0008881C450D1408F93CD5FDE4F9881C35049
:1022C000D1409F93BF92AF929F928F92FF92EF92D5
:1022D000DF92CF923F932F931F930F937F936F9330
:1022E0005F934F93CE5FDE4FA881C250D140AF9332
:1022F000CF5FDE4FB881C150D140BF9381E893E0FA
:102300009F938F9381E08F931F928E010F5F1F4FDA
:102310001F930F930F949B2CC050DF4F1882C05017
:10232000D1400FB6F894DEBF0FBECDBFC8010E94EA
:102330007C0A0F94042BFC010190F081E02DC95F11
:10234000DE4FF983E883C750D1402F923F924F92DE
:102350005F926F927F92BF93AF93CA5FDE4FF88117
:10236000C650D140FF93CB5FDE4FA881C550D1400E
:10237000AF93CC5FDE4FB881C450D140BF93CD5FE7
:10238000DE4FE881C350D140EF93BF92AF929F924E
:102390008F92FF92EF92DF92CF92C95FDE4FA881BA
:1023A000B981C750D1401496ED91FC911597580111
:1023B000690116E0E12EF12C00E010E09A01AB017A
:1023C000CF5FDE4F6881C150D140CE5FDE4F788154
:1023D000C250D1401995809111C6909112C6DC016E
:1023E000ED91FC910084F185E02D19950FB6F894DC
:1023F000DEBF0FBECDBF60E070E0CB01C85FDE4F37
:102400000FB6F894DEBF0FBECDBFDF91CF911F9105
:102410000F91FF90EF90DF90CF90BF90AF909F9083
:102420008F907F906F905F904F903F902F90089586
:10243000AF92BF92CF92DF92EF92FF920F931F93D2
:10244000CF93DF93CDB7DEB7DA950FB6F894DEBF42
:102450000FBECDBF9A01A09111C6B09112C61097C0
:10246000A1F47F936F933F934F939F938F9381EB4F
:1024700092E09F938F9381E08F931F92CE010196FC
:102480009F938F930F949B2C2FC0ED91FC911197EC
:102490001F921F921F921F921F921F921F921F92B4
:1024A0001F921F921F921F921F921F921F921F92A4
:1024B0001F921F921F921F920480F581E02DA12C84
:1024C000B12C6501E12CF12C8701AB01BC01CD01E0
:1024D0001995809111C6909112C6DC01ED91FC9185
:1024E0000084F185E02D19950FB6F894DEBF0FBE7C
:1024F000CDBF60E070E0CB01D3950FB6F894DEBF9E
:102500000FBECDBFDF91CF911F910F91FF90EF9044
:10251000DF90CF90BF90AF9008950296089560E548
:1025200070E080E090E0089529EF33E0FC01318312
:1025300020830C944824CF93DF93EC010E949412E3
:10254000CE01DF91CF910C940DE760E570E002962B
:102550000F94B02BBC0180E090E00895CF92DF9201
:10256000EF92FF920F931F93CF93DF93EC018B01B8
:1025700069017A01672B41F447E250E060E070E0C6
:102580008CEB93E00E94FE0CCE010296081719070F
:1025900039F0A601B8010F94A12BCF5ADF4F188252
:1025A000DF91CF911F910F91FF90EF90DF90CF902F
:1025B0000895EF92FF920F93CF93DF937B01EC018D
:1025C000229660E570E0CE010F94B02B9C0140E0B4
:1025D00050E000E0BE01C7010E94C519DF91CF9114
:1025E0000F91FF90EF9008950F931F93CF93DF9378
:1025F00000D01F92CDB7DEB78C01CB0140E550E093
:1026000060E070E049835A836B837C83B8016E5F1E
:102610007F4F20E0AE014F5F5F4F0E94C82049818D
:102620005A816B817C81403551056105710520F02F
:102630004FE450E060E070E0F801E40FF51F128213
:102640000F900F900F900F90DF91CF911F910F91EE
:1026500008950F931F93CF93DF93EC018B010E949A
:102660003C2489EF93E09983888320E530E040E0C3
:1026700050E0B801CE01DF91CF911F910F910C94E2
:10268000AE120F931F93CF93DF93EC018B010E9447
:102690003C2489EF93E099838883D801ED91FC91E4
:1026A0000284F385E02DC801199520E530E040E073
:1026B00050E0BC01CE01DF91CF911F910F910C949E
:1026C000AE120F931F93CF93DF93EC018B010E9407
:1026D0003C2489EF93E099838883B8016E5F7F4F34
:1026E00020E530E040E050E0CE01DF91CF911F9136
:1026F0000F910C94AE12CF93DF93EC010E943C2417
:1027000089EF93E0998388831A82DF91CF910895AE
:10271000CF93DF93EC016E5F7F4FE881F9810684F0
:10272000F785E02D20E530E040E050E01995CE013E
:10273000DF91CF910895403551056105710520F075
:102740004FE450E060E070E0FC01E40FF51F1282FE
:102750000895FC0164857585868597850895FC013B
:1027600082859385089508950C940DE7CB016BE065
:1027700074E00C944C252BE434E0FC01318320837D
:10278000089508950C940DE7FC0189E594E0918388
:102790008083128213821482158216821782108619
:1027A0001186089508950C940DE7AF92BF92CF92D1
:1027B000DF92EF92FF920F931F93CF93DF93EC0181
:1027C0005B01FB0182819381A481B5818A839B8314
:1027D000AC83BD8386819781A085B1858E839F83DD
:1027E000A887B9870190F081E02D0084F185E02D64
:1027F000CB011995892B41F443E350E060E070E090
:1028000082E194E00E94FE0CE881F9810680F78164
:10281000E02DCE011995892B41F444E350E060E0AE
:1028200070E082E194E00E94FE0CD5011296CD90FA
:10283000DD90ED90FC901597E881F9810480F58199
:10284000E02DCE0119956C157D058E059F0588F448
:10285000CA80DB80EC80FD80F50102811381248138
:10286000358146E350E060E070E082E194E00E9450
:10287000000E0A811B810F5F1F4FD501ED91FC9166
:102880000084F185E02DC50119955C01E881F9818D
:102890000680F781E02DCE011995A801B501DF91E1
:1028A000CF911F910F91FF90EF90DF90CF90BF904D
:1028B000AF900D945D2B29E534E0FC01318320833A
:1028C0000C94D513CF93DF93EB010E94D513CE0167
:1028D000DF91CF910895CF92DF92EF92FF921F93F5
:1028E000CF93DF93EC01162FCA80DB80EC80FD8054
:1028F000E881F9810480F581E02D1995C616D70687
:10290000E806F90680F5E881F9810680F781E02D77
:10291000CE011995892B41F449E450E060E070E064
:1029200082E194E00E94FE0CE881F9810680F78143
:10293000E02DCE0119952A813B81820F931FFC0166
:1029400010838A819B81AC81BD810196A11DB11D3F
:102950008A839B83AC83BD831E821F82188619865F
:1029600080E090E002C082E090E0DF91CF911F9183
:10297000FF90EF90DF90CF900895CF92DF92EF928B
:10298000FF921F93CF93DF93EC01162FCA80DB8059
:10299000EC80FD80E881F9810480F581E02D1995B6
:1029A000C616D706E806F90680F5E881F9810680A3
:1029B000F781E02DCE011995892B41F445E550E0D2
:1029C00060E070E082E194E00E94FE0CE881F98111
:1029D0000680F781E02DCE0119952A813B81820F77
:1029E000931FFC0110838A819B81AC81BD8101967C
:1029F000A11DB11D8A839B83AC83BD831E821F8270
:102A00001886198680E090E002C082E090E0DF91B5
:102A1000CF911F91FF90EF90DF90CF900895CF92CC
:102A2000DF92EF92FF920F931F93CF93DF93EC010E
:102A3000162F072FCA80DB80EC80FD808FEFC81A2D
:102A4000D80AE80AF80AE881F9810480F581E02DC6
:102A5000CE011995C616D706E806F906E8F5E8810D
:102A6000F9810680F781E02DCE011995892B41F47B
:102A700041E650E060E070E082E194E00E94FE0CEC
:102A8000E881F9810680F781E02DCE0119952A8130
:102A90003B81820F931FFC010083E881F98106804E
:102AA000F781E02DCE0119952A813B81820F931F7A
:102AB000FC0111838A819B81AC81BD810296A11D9D
:102AC000B11D8A839B83AC83BD831E821F821886BF
:102AD000198680E090E002C082E090E0DF91CF9123
:102AE0001F910F91FF90EF90DF90CF900895CF92BC
:102AF000DF92EF92FF920F931F93CF93DF93EC013E
:102B0000162F072FCA80DB80EC80FD808FEFC81A5C
:102B1000D80AE80AF80AE881F9810480F581E02DF5
:102B2000CE011995C616D706E806F906E8F5E8813C
:102B3000F9810680F781E02DCE011995892B41F4AA
:102B40004EE650E060E070E082E194E00E94FE0C0E
:102B5000E881F9810680F781E02DCE0119952A815F
:102B60003B81820F931FFC010083E881F98106807D
:102B7000F781E02DCE0119952A813B81820F931FA9
:102B8000FC0111838A819B81AC81BD810296A11DCC
:102B9000B11D8A839B83AC83BD831E821F821886EE
:102BA000198680E090E002C082E090E0DF91CF9152
:102BB0001F910F91FF90EF90DF90CF900895AF920B
:102BC000BF92CF92DF92EF92FF920F931F93CF931A
:102BD000DF93EC01142F052FB62EA72ECA80DB80C1
:102BE000EC80FD8083E0C80ED11CE11CF11CE88163
:102BF000F9810480F581E02DCE011995C616D7061E
:102C0000E806F90608F057C0E881F9810680F781E7
:102C1000E02DCE011995892B41F44CE750E060E09E
:102C200070E082E194E00E94FE0CE881F981068068
:102C3000F781E02DCE0119952A813B81820F931FE8
:102C4000FC01A082E881F9810680F781E02DCE01A8
:102C500019952A813B81820F931FFC01B182E88183
:102C6000F9810680F781E02DCE0119952A813B81FB
:102C7000820F931FFC010283E881F9810680F781AE
:102C8000E02DCE0119952A813B81820F931FFC0113
:102C900013838A819B81AC81BD810496A11DB11DE6
:102CA0008A839B83AC83BD831E821F82188619860C
:102CB00080E090E002C082E090E0DF91CF911F9130
:102CC0000F91FF90EF90DF90CF90BF90AF9008955D
:102CD000AF92BF92CF92DF92EF92FF920F931F932A
:102CE000CF93DF93EC01142F052FB62EA72ECA80A9
:102CF000DB80EC80FD8083E0C80ED11CE11CF11C60
:102D0000E881F9810480F581E02DCE011995C61680
:102D1000D706E806F90608F057C0E881F981068071
:102D2000F781E02DCE011995892B41F44FE850E051
:102D300060E070E082E194E00E94FE0CE881F9819D
:102D40000680F781E02DCE0119952A813B81820F03
:102D5000931FFC01A082E881F9810680F781E02DB4
:102D6000CE0119952A813B81820F931FFC01B1820C
:102D7000E881F9810680F781E02DCE0119952A813D
:102D80003B81820F931FFC010283E881F981068059
:102D9000F781E02DCE0119952A813B81820F931F87
:102DA000FC0113838A819B81AC81BD810496A11DA6
:102DB000B11D8A839B83AC83BD831E821F821886CC
:102DC000198680E090E002C082E090E0DF91CF9130
:102DD0001F910F91FF90EF90DF90CF90BF90AF9039
:102DE00008954F925F926F927F92AF92BF92CF926F
:102DF000DF92EF92FF920F931F93CF93DF93EC013B
:102E0000F02EE22ED32EC42EB52EA62E072F4A80EA
:102E10005B806C807D8087E0480E511C611C711CBA
:102E2000E881F9810480F581E02DCE0119954616DF
:102E300057066806790608F0D1C0E881F981068056
:102E4000F781E02DCE011995892B41F444EA50E039
:102E500060E070E082E194E00E94FE0CE881F9817C
:102E60000680F781E02DCE011995EA81FB81E80FFC
:102E7000F91F2F2D312F4E2D5D2D6C2D7B2D8A2D81
:102E8000902F08E30F9492282083E881F98106802F
:102E9000F781E02DCE011995EA81FB81E80FF91F3A
:102EA00020E030E040E050E060E070E08A2D90E00B
:102EB00000E30F9492282183E881F9810680F7814D
:102EC000E02DCE011995EA81FB81E80FF91F20E082
:102ED00030E040E050E060E07B2D80E090E008E2F0
:102EE0000F9492282283E881F9810680F781E02DF2
:102EF000CE011995EA81FB81E80FF91F20E030E04F
:102F000040E050E06C2D70E080E090E000E20F9433
:102F100092282383E881F9810680F781E02DCE0194
:102F20001995EA81FB81E80FF91F20E030E040E0CD
:102F30005D2D60E070E080E090E008E10F94922861
:102F40002483E881F9810680F781E02DCE0119956F
:102F5000EA81FB81E80FF91F20E030E04E2D50E0C0
:102F600060E070E080E090E000E10F94922825831B
:102F7000E881F9810680F781E02DCE011995EA817B
:102F8000FB81E80FF91F20E0312F40E050E060E0C6
:102F900070E080E090E008E00F9492282683E881BA
:102FA000F9810680F781E02DCE0119952A813B81B8
:102FB000820F931FFC01F7828A819B81AC81BD81C6
:102FC0000896A11DB11D8A839B83AC83BD831E829D
:102FD0001F821886198680E090E002C082E090E0AF
:102FE000DF91CF911F910F91FF90EF90DF90CF90E5
:102FF000BF90AF907F906F905F904F9008954F92E9
:103000005F926F927F92AF92BF92CF92DF92EF92D8
:10301000FF920F931F93CF93DF93EC01F02EE22EDC
:10302000D32EC42EB52EA62E072F4A805B806C802F
:103030007D8087E0480E511C611C711CE881F9817C
:103040000480F581E02DCE011995461657066806D5
:10305000790608F0D1C0E881F9810680F781E02D7A
:10306000CE011995892B41F440EC50E060E070E00E
:1030700082E194E00E94FE0CE881F9810680F781EC
:10308000E02DCE011995EA81FB81E80FF91F2F2D64
:10309000312F4E2D5D2D6C2D7B2D8A2D902F08E329
:1030A0000F9492282083E881F9810680F781E02D32
:1030B000CE011995EA81FB81E80FF91F20E030E08D
:1030C00040E050E060E070E08A2D90E000E30F9473
:1030D00092282183E881F9810680F781E02DCE01D5
:1030E0001995EA81FB81E80FF91F20E030E040E00C
:1030F00050E060E07B2D80E090E008E20F949228A1
:103100002283E881F9810680F781E02DCE011995AF
:10311000EA81FB81E80FF91F20E030E040E050E059
:103120006C2D70E080E090E000E20F949228238301
:10313000E881F9810680F781E02DCE011995EA81B9
:10314000FB81E80FF91F20E030E040E05D2D60E0FA
:1031500070E080E090E008E10F9492282483E881F9
:10316000F9810680F781E02DCE011995EA81FB8176
:10317000E80FF91F20E030E04E2D50E060E070E0F5
:1031800080E090E000E10F9492282583E881F981A6
:103190000680F781E02DCE011995EA81FB81E80FC9
:1031A000F91F20E0312F40E050E060E070E080E067
:1031B00090E008E00F9492282683E881F981068048
:1031C000F781E02DCE0119952A813B81820F931F53
:1031D000FC01F7828A819B81AC81BD810896A11D8B
:1031E000B11D8A839B83AC83BD831E821F82188698
:1031F000198680E090E002C082E090E0DF91CF91FC
:103200001F910F91FF90EF90DF90CF90BF90AF9004
:103210007F906F905F904F9008950F931F93CF937F
:10322000DF93CDB7DEB728970FB6F894DEBF0FBE99
:10323000CDBF49835A836B837C838A019B014D8177
:103240005E816F8178850E94F11628960FB6F894FA
:10325000DEBF0FBECDBFDF91CF911F910F910895BB
:103260000C94DF15CF92DF92EF92FF921F93CF93D2
:10327000DF93EC01162FCA80DB80EC80FD80E881B3
:10328000F9810480F581E02D1995C616D706E80668
:10329000F906D8F5E881F9810680F781E02DCE01A5
:1032A0001995892B41F443EF50E060E070E082E132
:1032B00094E00E94FE0CE881F9810680F781E02D00
:1032C000CE01112349F019952A813B81820F931F6A
:1032D0002FEFFC01208307C019952A813B81820FC3
:1032E000931FFC0110828A819B81AC81BD81019674
:1032F000A11DB11D8A839B83AC83BD831E821F8267
:103300001886198680E090E002C082E090E0DF91AC
:10331000CF911F91FF90EF90DF90CF900895CF92C3
:10332000DF92EF92FF920F931F93CF93DF93EC0105
:103330008B01CA80DB80EC80FD808FEFC81AD80A31
:10334000E80AF80AE881F9810480F581E02DCE01D0
:103350001995C616D706E806F90660F4B801CE013D
:10336000DF91CF911F910F91FF90EF90DF90CF9061
:103370000C940F1582E090E0DF91CF911F910F9197
:10338000FF90EF90DF90CF9008954F925F926F92F1
:103390007F92AF92BF92CF92DF92EF92FF920F9304
:1033A000CF93DF93EC015B0169017A010023A9F15E
:1033B0004A805B806C807D804C0C5D1C6E1C7F1C89
:1033C000E881F9810480F581E02DCE01199564151D
:1033D00075058605970538F1E881F9810680F78142
:1033E000E02DCE0119952A813B81A601B501820FFE
:1033F000931F0F945D2B8A819B81AC81BD81C80E88
:10340000D91EEA1EFB1ECA82DB82EC82FD821E826E
:103410001F821886198680E007C0B9010E940F1527
:10342000009731F202C082E090E0DF91CF910F91DE
:10343000FF90EF90DF90CF90BF90AF907F906F9014
:103440005F904F900895DB01ED91FC9111970190F1
:10345000F081E02DBC01CD0119948F929F92AF9223
:10346000BF92CF92DF92EF92FF920F931F93CF9371
:10347000DF93EC018B01DB011296CD90DD90ED9096
:10348000FC9015978A809B80AC80BD808C0C9D1C25
:10349000AE1CBF1CB2E08B0E911CA11CB11CE881BC
:1034A000F9810480F581E02D1995681579058A0563
:1034B0009B0508F454C0B601CE010E940F15009779
:1034C00009F04FC0E881F9810680F781E02DCE0137
:1034D0001995892B41F442E351E060E070E082E10C
:1034E00094E00E94FE0CD801ED91FC910084F185DE
:1034F000E02DC8011995892B41F443E351E060E0C8
:1035000070E082E194E00E94FE0CD801ED91FC9104
:103510000084F185E02DC80119958C01E881F981BD
:103520000680F781E02DCE0119952A813B81A60105
:10353000B801820F931F0F945D2B8A819B81AC8110
:10354000BD81C80ED91EEA1EFB1ECA82DB82EC8238
:10355000FD821E821F821886198680E001C082E0EB
:1035600090E0DF91CF911F910F91FF90EF90DF904E
:10357000CF90BF90AF909F908F9008950F931F931F
:10358000CF93DF93EC010E811F81288539858A81D5
:103590009B81AC81BD81081719072A073B0779F188
:1035A0008B01E881F9810680F781E02DCE01199524
:1035B000892B41F446E451E060E070E082E194E060
:1035C0000E94FE0CE881F9810680F781E02DCE0192
:1035D00019952E813F81820F931FFC018081F80194
:1035E00080838E819F81A885B9850196A11DB11D1B
:1035F0008E839F83A887B98780E090E002C083E034
:1036000090E0DF91CF911F910F9108950F931F9339
:10361000CF93DF93EC010E811F81288539858A8144
:103620009B81AC81BD81081719072A073B0779F1F7
:103630008B01E881F9810680F781E02DCE01199593
:10364000892B41F444E551E060E070E082E194E0D0
:103650000E94FE0CE881F9810680F781E02DCE0101
:1036600019952E813F81820F931FFC018081F80103
:1036700080838E819F81A885B9850196A11DB11D8A
:103680008E839F83A887B98780E090E002C083E0A3
:1036900090E0DF91CF911F910F910895EF92FF92EB
:1036A0000F931F93CF93DF93EC017B014A815B81E2
:1036B0006C817D818E819F81A885B985841795074E
:1036C000A607B70709F447C0481B590B6A0B7B0BC9
:1036D000423051056105710508F440C0E881F98167
:1036E0000680F781E02DCE011995892B41F443E640
:1036F00051E060E070E082E194E00E94FE0CE8811D
:10370000F9810680F781E02DCE0119952E813F8148
:10371000820F931FFC01018110E0E881F98106808E
:10372000F781E02DCE0119954E815F8168857985FD
:10373000FC01E40FF51F8081182BF7011183008332
:103740004E5F5F4F6F4F7F4F4E835F8368877987F0
:1037500080E090E005C083E090E002C085E090E06A
:10376000DF91CF911F910F91FF90EF900895EF920D
:10377000FF920F931F93CF93DF93EC017B014A815C
:103780005B816C817D818E819F81A885B98584173D
:103790009507A607B70709F447C0481B590B6A0BE2
:1037A0007B0B423051056105710508F440C0E8818A
:1037B000F9810680F781E02DCE011995892B41F41E
:1037C00043E751E060E070E082E194E00E94FE0C8B
:1037D000E881F9810680F781E02DCE0119952E81CF
:1037E0003F81820F931FFC01018110E0E881F98184
:1037F0000680F781E02DCE0119954E815F816885A5
:103800007985FC01E40FF51F8081182BF7011183E6
:1038100000834E5F5F4F6F4F7F4F4E835F8368879C
:10382000798780E090E005C083E090E002C085E009
:1038300090E0DF91CF911F910F91FF90EF9008954D
:103840004F925F926F927F928F929F92AF92BF92B0
:10385000CF92DF92EF92FF920F931F93CF93DF935C
:10386000EC018B014A815B816C817D818E819F811E
:10387000A885B98584179507A607B70709F475C009
:10388000481B590B6A0B7B0B4430510561057105D0
:1038900008F46EC0E881F9810680F781E02DCE0141
:1038A0001995892B41F444E851E060E070E082E131
:1038B00094E00E94FE0CE881F9810680F781E02DFA
:1038C000CE0119952E813F81820F931FFC01C38089
:1038D0004C2C512C612C712CE881F9810680F781E8
:1038E000E02DCE0119952E813F81820F931FFC019F
:1038F0008280912CA12CB12CBA2CA92C982C882434
:10390000E881F9810680F781E02DCE0119952E819D
:103910003F81820F931FFC01818175016401E82AB8
:10392000C428D528E628F728E881F9810680F781A0
:10393000E02DCE0119952E813F81820F931FFC014E
:103940008081F82AF801C082D182E282F3828E81DE
:103950009F81A885B9850496A11DB11D8E839F8383
:10396000A887B98780E090E005C083E090E002C0BE
:1039700085E090E0DF91CF911F910F91FF90EF9044
:10398000DF90CF90BF90AF909F908F907F906F907F
:103990005F904F9008954F925F926F927F928F92B7
:1039A0009F92AF92BF92CF92DF92EF92FF920F93CE
:1039B0001F93CF93DF93EC018B014A815B816C8174
:1039C0007D818E819F81A885B98584179507A6077B
:1039D000B70709F475C0481B590B6A0B7B0B4430C1
:1039E00051056105710508F46EC0E881F981068012
:1039F000F781E02DCE011995892B41F446E951E07C
:103A000060E070E082E194E00E94FE0CE881F981C0
:103A10000680F781E02DCE0119952E813F81820F1E
:103A2000931FFC01C3804C2C512C612C712CE8811C
:103A3000F9810680F781E02DCE0119952E813F8115
:103A4000820F931FFC018280912CA12CB12CBA2CE7
:103A5000A92C982C8824E881F9810680F781E02D33
:103A6000CE0119952E813F81820F931FFC01818128
:103A700075016401E82AC428D528E628F728E881DA
:103A8000F9810680F781E02DCE0119952E813F81C5
:103A9000820F931FFC018081F82AF801C082D18235
:103AA000E282F3828E819F81A885B9850496A11D4B
:103AB000B11D8E839F83A887B98780E090E005C001
:103AC00083E090E002C085E090E0DF91CF911F910C
:103AD0000F91FF90EF90DF90CF90BF90AF909F90AD
:103AE0008F907F906F905F904F9008953F924F928C
:103AF0005F926F927F928F929F92AF92BF92CF927E
:103B0000DF92EF92FF920F931F93CF93DF93EC011D
:103B10007B014A815B816C817D818E819F81A8853B
:103B2000B98584179507A607B70709F41BC1481B79
:103B3000590B6A0B7B0B483051056105710508F480
:103B400014C1E881F9810680F781E02DCE01199535
:103B5000892B41F44BEA51E060E070E082E194E0AF
:103B60000E94FE0CE881F9810680F781E02DCE01EC
:103B700019952E813F81820F931FFC011781E881E7
:103B8000F9810680F781E02DCE0119952E813F81C4
:103B9000820F931FFC01268130E040E050E060E09E
:103BA00070E080E090E008E00F947728B22E332E8A
:103BB000442E852E962EA72E6C01E881F981068071
:103BC000F781E02DCE0119952E813F81820F931F41
:103BD000FC01258130E040E050E060E070E080E0F2
:103BE00090E000E10F947728B22A332A442A552E18
:103BF0005828662E6928772E7A28C82AD92A1B29A0
:103C0000E881F9810680F781E02DCE0119952E819A
:103C10003F81820F931FFC01248130E040E050E09F
:103C200060E070E080E090E008E10F947728122BCC
:103C3000332A442A552A662A772AC82AD92AE881AB
:103C4000F9810680F781E02DCE0119952E813F8103
:103C5000820F931FFC01238130E040E050E060E0E0
:103C600070E080E090E000E20F947728122B332A76
:103C7000442A552A662A772AC82AD92AE881F9814E
:103C80000680F781E02DCE0119952E813F81820FAC
:103C9000931FFC01228130E040E050E060E070E0E2
:103CA00080E090E008E20F947728122B332A442A10
:103CB000552A662A772AC82AD92AE881F9810680F6
:103CC000F781E02DCE0119952E813F81820F931F40
:103CD000FC01218130E040E050E060E070E080E0F5
:103CE00090E000E30F947728122B332A442A552AB8
:103CF000662A772AC82AD92AE881F9810680F781BD
:103D0000E02DCE0119958E809F80A884B984FC0196
:103D1000E80DF91D208130E040E050E060E070E007
:103D200080E090E008E30F947728122BF7011083CE
:103D30003329318344294283552953836629648377
:103D4000772975838C2986839D299783D501C401A2
:103D50000896A11DB11D8E839F83A887B98780E037
:103D600090E005C083E090E002C085E090E0DF9144
:103D7000CF911F910F91FF90EF90DF90CF90BF9068
:103D8000AF909F908F907F906F905F904F903F90FB
:103D900008953F924F925F926F927F928F929F927F
:103DA000AF92BF92CF92DF92EF92FF920F931F9349
:103DB000CF93DF93EC017B014A815B816C817D8134
:103DC0008E819F81A885B98584179507A607B707B7
:103DD00009F41BC1481B590B6A0B7B0B483051057A
:103DE0006105710508F414C1E881F9810680F78145
:103DF000E02DCE011995892B41F442EC51E060E0B1
:103E000070E082E194E00E94FE0CE881F981068076
:103E1000F781E02DCE0119952E813F81820F931FEE
:103E2000FC011781E881F9810680F781E02DCE0140
:103E300019952E813F81820F931FFC01268130E06E
:103E400040E050E060E070E080E090E008E00F9437
:103E50007728B22E332E442E852E962EA72E6C0157
:103E6000E881F9810680F781E02DCE0119952E8138
:103E70003F81820F931FFC01258130E040E050E03C
:103E800060E070E080E090E000E10F947728B22AD3
:103E9000332A442A552E5828662E6928772E7A28E8
:103EA000C82AD92A1B29E881F9810680F781E02DEB
:103EB000CE0119952E813F81820F931FFC01248131
:103EC00030E040E050E060E070E080E090E008E149
:103ED0000F947728122B332A442A552A662A772AE8
:103EE000C82AD92AE881F9810680F781E02DCE0120
:103EF00019952E813F81820F931FFC01238130E0B1
:103F000040E050E060E070E080E090E000E20F947C
:103F10007728122B332A442A552A662A772AC82A58
:103F2000D92AE881F9810680F781E02DCE01199523
:103F30002E813F81820F931FFC01228130E040E0FF
:103F400050E060E070E080E090E008E20F947728B5
:103F5000122B332A442A552A662A772AC82AD92AB4
:103F6000E881F9810680F781E02DCE0119952E8137
:103F70003F81820F931FFC01218130E040E050E03F
:103F800060E070E080E090E000E30F947728122B6F
:103F9000332A442A552A662A772AC82AD92AE88148
:103FA000F9810680F781E02DCE0119958E809F80E2
:103FB000A884B984FC01E80DF91D208130E040E0BF
:103FC00050E060E070E080E090E008E30F94772834
:103FD000122BF70110833329318344294283552959
:103FE000538366296483772975838C2986839D2969
:103FF0009783D501C4010896A11DB11D8E839F83AF
:10400000A887B98780E090E005C083E090E002C017
:1040100085E090E0DF91CF911F910F91FF90EF909D
:10402000DF90CF90BF90AF909F908F907F906F90D8
:104030005F904F903F9008950F931F93CF93DF931E
:10404000CDB7DEB728970FB6F894DEBF0FBECDBF51
:104050008B01BE016F5F7F4F0E94761D009741F478
:1040600024E0FE013196D80101900D922A95E1F7E6
:1040700028960FB6F894DEBF0FBECDBFDF91CF916B
:104080001F910F9108950F931F93CF93DF93EC012E
:104090000E811F81288539858A819B81AC81BD81F4
:1040A000081719072A073B0709F444C08B01E88168
:1040B000F9810680F781E02DCE011995892B41F415
:1040C0004BEE51E060E070E082E194E00E94FE0C73
:1040D000E881F9810680F781E02DCE0119952E81C6
:1040E0003F81820F931FFC0180818F3F21F481E08B
:1040F000F801808311C0E881F9810680F781E02D05
:10410000CE0119952E813F81820F931FFC01808182
:10411000811113C0F80110828E819F81A885B98515
:104120000196A11DB11D8E839F83A887B98780E06A
:1041300090E005C083E090E002C084E090E0DF9171
:10414000CF911F910F9108950C944E1B0F931F93C5
:10415000CF93DF9300D01F92CDB7DEB78B01BE01A6
:104160006F5F7F4F0E94201C009749F449815A815C
:104170006B817C81F80140835183628373830F904C
:104180000F900F900F90DF91CF911F910F91089595
:104190004F925F926F927F928F929F92AF92BF9257
:1041A000CF92DF92EF92FF920F931F93CF93DF9303
:1041B0001F921F92CDB7DEB78C016B017A01B22E30
:1041C000DC01ED91FC910680F781E02D1995892B9A
:1041D00041F44AE052E060E070E082E194E00E9445
:1041E000FE0CB1102DC0BE016F5F7F4FC8010E9451
:1041F0004E1B009709F081C0A980BA80A50160E03C
:1042000070E0F80182819381A481B5814680578056
:104210006084718484199509A609B70984179507E4
:10422000A607B70708F44BC0F70180819181A281EE
:10423000B38184179507A607B70708F043C03FC0AE
:10424000D7018D909D90AD90BC90F80182819381B3
:10425000A481B5814681578160857185841B950B4A
:10426000A60BB70B88159905AA05BB0540F101906F
:10427000F081E02D0680F781E02DC8011995D80165
:1042800016966D917C911797680F791FA401C6014E
:104290000F945D2BF8014681578160857185F70188
:1042A00080819181A281B381840F951FA61FB71FC2
:1042B000F80186839783A087B18780E001C085E0FD
:1042C00090E01BC0D801ED91FC910680F781E02DB4
:1042D000C8011995F80166817781680F791FA501DA
:1042E000C6010F945D2B89819A81A0E0B0E0F701AF
:1042F00080839183A283B383CDCF0F900F90DF9102
:10430000CF911F910F91FF90EF90DF90CF90BF90D2
:10431000AF909F908F907F906F905F904F90089597
:10432000DB01ED91FC9111970280F381E02DBC013E
:10433000CD011994FC011682178210861186128213
:104340001382148215820895FC011682178210864A
:10435000118608950F931F93FC010281138124811C
:10436000358186819781A085B18580179107A20745
:10437000B307A1F0081B190B2A0B3B0B04171507F9
:104380002607370770F0480F591F6A1F7B1F4683A7
:1043900057836087718780E090E005C083E090E0FC
:1043A00002C085E090E01F910F910895FC016281A9
:1043B0007381848195810895CF92DF92EF92FF926D
:1043C0000F931F93CF93DF93EC018B0169017A0167
:1043D000E881F9810480F581E02D19956C157D0542
:1043E0008E059F0590F10115110541F44FE652E04D
:1043F00060E070E082E194E00E94FE0CE881F981C7
:104400000680F781E02DCE011995892B41F440E714
:1044100052E060E070E082E194E00E94FE0CE881EE
:10442000F9810680F781E02DCE011995A601B8012A
:104430000F945D2BCA82DB82EC82FD821E821F827A
:104440001886198680E090E002C082E090E0DF915B
:10445000CF911F910F91FF90EF90DF90CF90089533
:10446000CF92DF92EF92FF92CF93DF93EC016A013C
:104470007B01E881F9810480F581E02D19956C15A7
:104480007D058E059F0558F0CA82DB82EC82FD8295
:104490001E821F821886198680E090E002C082E0AA
:1044A00090E0DF91CF91FF90EF90DF90CF90089553
:1044B0008F929F92AF92BF92CF92DF92EF92FF9234
:1044C0000F931F93CF93DF931F921F92CDB7DEB749
:1044D0008C017B01DB01ED91FC910680F781E02DE1
:1044E000CB011995892B41F441E352E060E070E083
:1044F00082E194E00E94FE0CBE016F5F7F4FC80115
:104500000E944E1B009751F589809A80A12CB12CF6
:10451000D701ED91FC910480F581E02DC70119953B
:10452000681579058A059B05B0F049815A8160E0DC
:1045300070E0F80182819381A481B58186809780A3
:10454000A084B18488199909AA09BB098417950721
:10455000A607B70728F425E090E049C0282F47C0F8
:104560000190F081E02D0680F781E02DC8011995BA
:10457000892B41F442E452E060E070E082E194E093
:104580000E94FE0CA980BA80D801ED91FC910680B2
:10459000F781E02DC8011995F801C680D780C80EB3
:1045A000D91ED701ED91FC910680F781E02DC7015E
:1045B0001995A501B6010F945D2B49815A8160E0E0
:1045C00070E0C7010E943022009741F629813A81AC
:1045D000F80186819781A085B185820F931FA11D67
:1045E000B11D86839783A087B18720E0B5CF822F46
:1045F0000F900F90DF91CF911F910F91FF90EF904F
:10460000DF90CF90BF90AF909F908F9008950F93C1
:104610001F93FC0182819381A481B581068117815A
:1046200020853185BC01CD01601B710B820B930B82
:104630001F910F910895CF92DF92EF92FF920F9307
:104640001F93CF93DF938C01EB0169017A01E8811D
:10465000F9810480F581E02DCB0119956C157D055C
:104660008E059F05D0F0D801ED91FC910680F78171
:10467000E02DC8011995F80166817781680F791FCF
:10468000A7019601CE01DF91CF911F910F91FF906D
:10469000EF90DF90CF900C94DC2182E090E0DF91EE
:1046A000CF911F910F91FF90EF90DF90CF900895E1
:1046B000AF92BF92CF92DF92EF92FF920F931F9330
:1046C000CF93DF93EC015B0169017A01DB01ED918E
:1046D000FC910480F581E02DCB011995F501028153
:1046E0001381248135810C0D1D1D2E1D3F1D60176A
:1046F00071078207930790F18A819B81AC81BD810C
:104700004E815F8168857985841B950BA60BB70B5D
:104710008C159D05AE05BF0518F1E881F98106806D
:10472000F781E02DCE0119956E817F81680F791F89
:1047300001E0A7019601C5010E94C519009791F4F7
:104740008E819F81A885B985C80ED91EEA1EFB1EE1
:10475000CE82DF82E886F98680E003C082E001C075
:1047600085E090E0DF91CF911F910F91FF90EF9046
:10477000DF90CF90BF90AF900895CF93DF93EC017F
:10478000E881F9810084F185E02D19952E813F8122
:10479000820F931FDF91CF910895CF93DF93EC01A8
:1047A000E881F9810680F781E02D19952A813B8106
:1047B000820F931FDF91CF910895CF93DF93EC0188
:1047C0000E94C41387E694E0998388831B861A8627
:1047D0001C861D861E861F86DF91CF910895CF927D
:1047E000DF92EF92FF920F931F93CF93DF93EC0131
:1047F0008B0169017A01672B41F44EED52E060E0D4
:1048000070E082E194E00E94FE0C1B870A87CC8650
:10481000DD86EE86FF86DF91CF911F910F91FF908D
:10482000EF90DF90CF900895CF92DF92EF92FF92BA
:104830000F931F93CF93DF93EC018B0169017A01F2
:104840000E94C41387E694E099838883A7019601A8
:10485000B801CE01DF91CF911F910F91FF90EF90A2
:10486000DF90CF900C94EF23FC0113861286148600
:104870001586168617860895CF93DF93EC010E9464
:10488000BB1388EA94E099838883DF91CF910895E0
:1048900028EA34E0FC01318320830C94C113CF93C8
:1048A000DF93EC010E944824CE01DF91CF910C945C
:1048B0000DE7CF92DF92EF92FF920F931F93CF936A
:1048C000DF938C01EB01DC01ED91FC910484F58513
:1048D000E02D19956B017C01D801ED91FC910284CA
:1048E000F385E02DC80119950097A9F0209799F05C
:1048F000FC0180E090E0DC018C159D05AE05BF0554
:1049000041F031912991321306C00196A11DB11DCC
:10491000F3CF81E001C080E0DF91CF911F910F9133
:10492000FF90EF90DF90CF900895CF92DF92EF92BB
:10493000FF920F931F93CF93DF938C01EB01DC0168
:10494000ED91FC910484F585E02D19956B017C01B6
:10495000E881F9810484F585E02DCE011995C6160C
:10496000D706E806F90699F4E881F9810284F3850F
:10497000E02DCE011995BC01C801DF91CF911F91A7
:104980000F91FF90EF90DF90CF900C94592480E02E
:10499000DF91CF911F910F91FF90EF90DF90CF901B
:1049A0000895CF92DF92EF92FF920F931F93CF93D0
:1049B000DF93CDB7DEB7EC84FD84D701ED91FC9198
:1049C0000284F385E02DC70119958C01D701ED9183
:1049D000FC910088F189E02DC70119956B017C01DC
:1049E0000115110541F445E450E060E070E081E715
:1049F00094E00E94FE0C9E01205F3F4F4E855F8534
:104A0000B601C8010F94D82CC00ED11EF601319703
:104A10001082DF91CF911F910F91FF90EF90DF9067
:104A2000CF9008950E94952491E0892708950E94CF
:104A3000592491E0892708958F929F92AF92BF9257
:104A4000EF92FF920F931F93CF93DF93EC018B01B3
:104A5000E881F981E684F7840088F189E02D1995D1
:104A60004B015C01D801ED91FC910284F385E02DAE
:104A7000C8011995A5019401BC01CE01F701199552
:104A8000CE01DF91CF911F910F91FF90EF90BF90DA
:104A9000AF909F908F900895EF92FF920F931F9386
:104AA000CF93DF93EC017B01E881F98106851785BF
:104AB0000088F189E02D19959B01AC01B701CE0169
:104AC000F8011995E881F9810284F385E02DCE0182
:104AD000DF91CF911F910F91FF90EF901994CF9399
:104AE000DF93EB01DC01ED91FC910284F385E02D75
:104AF0001995BC01CE01DF91CF910C944C25BF924A
:104B0000CF92DF92EF92FF920F931F93CF93DF9399
:104B10007C01162F072FDC01ED91FC910284F385B7
:104B2000E02D1995EC01D701ED91FC910088F189F8
:104B3000E02DC7011995AE016B017C01FA01C1148A
:104B4000D104E104F10469F09A012F5F3F4FB1E015
:104B5000CB1AD108E108F108B080BB2011F0A901FF
:104B6000EDCF9A012C1B3D0B6901330FEE08FF08B6
:104B7000AB01BC014C195D096E097F0991F0A12FB1
:104B8000B02F2D91222361F041305105610571054F
:104B9000C1F3208341505109610971093196F1CF68
:104BA0001082DF91CF911F910F91FF90EF90DF90D6
:104BB000CF90BF9008950F931F93CF93DF93EC0195
:104BC0008B01E881F9810088F189E02D1995C801F0
:104BD0000F94B02B9C0140E050E0B801CE010E9440
:104BE0007F25E881F9810284F385E02DCE01DF91F4
:104BF000CF911F910F911994CF92DF92EF92FF9274
:104C00000F931F93CF93DF938C01EB01E881F98120
:104C10000484F585E02DCB0119956B017C01E881B9
:104C2000F9810284F385E02DCE011995A701960143
:104C3000BC01C8010E947F25C801DF91CF911F915F
:104C40000F91FF90EF90DF90CF900895B9010C94F1
:104C50000927B9010C9436270F931F93CF93DF9345
:104C60008C01EC01CC59DC4F48EC50E060E070E086
:104C7000CE010F94F513BE01C8010E943627CE0164
:104C80000F94D513672B682B692B59F09E0140E0D8
:104C900050E0BA01C801DF91CF911F910F910C94A0
:104CA000A229DF91CF911F910F910895CF93DF93A8
:104CB000EC018EEB94E099838883CE018C599C4F54
:104CC0002DEA34E2FC01318320830E94C113CE011E
:104CD000DF91CF910C943A29CF93DF93EC010E949E
:104CE0005626CE01DF91CF910C940DE78F929F92C3
:104CF000AF92BF92CF92DF92EF92FF920F931F93EA
:104D0000CF93DF93EC0169017A010E944E288EEB6C
:104D100094E099838883FE01EA56FD4FC082D182D8
:104D2000E282F3823496118210828E0104561D4F66
:104D30001F921F921F9288EC8F934801A12CB12CD7
:104D4000C12CD12CE12CF12C0DEE1EED98014DEE75
:104D50005EEFBA01CE018C599C4F0F9473120F90E5
:104D60000F900F900F90DF91CF911F910F91FF90B7
:104D7000EF90DF90CF90BF90AF909F908F9008956D
:104D8000CF92DF92EF92FF920F931F93CF93DF9317
:104D9000EC01680179010E946D28FE01EA56FD4F81
:104DA00080819181A281B381C656DD4F813091050A
:104DB000A105B10581F060F082309105A105B10532
:104DC00069F00397A105B10569F482E098EC08C089
:104DD0008BE296EC05C088EC96EC02C085E697EC79
:104DE0009983888326E0B701A601888199810E9472
:104DF00039D444E050E060E070E088819981DF912F
:104E0000CF911F910F91FF90EF90DF90CF900C9476
:104E10009DDA8F929F92AF92BF92EF92FF920F9383
:104E20001F93CF93DF938B01EC01C656DD4FE881D2
:104E3000F9810190F081E02DE280F380CB010F94A5
:104E4000D5134B015C01C8010F94CB13A401B90128
:104E500088819981F701DF91CF911F910F91FF9088
:104E6000EF90BF90AF909F908F901994CF92DF9268
:104E7000EF92FF920F931F93CF93DF938C01EB017F
:104E8000CB010F94D5136B017C01CE010F94CB1392
:104E9000F801E656FD4FA601B901808191810E947B
:104EA000A2DBAC0160E070E0CE01DF91CF911F91F9
:104EB0000F91FF90EF90DF90CF900D94F513CF926C
:104EC000DF92EF92FF920F931F93CF93DF93EC014A
:104ED0006A017B01141615061606170654F48A019A
:104EE0009B014FE150E060E070E08AEC94E00E94AA
:104EF0007D0D26E82C9DC0012D9D900D11248E570F
:104F00009F4F8C0F9D1FDF91CF911F910F91FF90AD
:104F1000EF90DF90CF900895CF92DF92EF92FF92C3
:104F20000F931F93CF93DF93EC016A017B0114165B
:104F300015061606170654F48A019B0146E250E056
:104F400060E070E08AEC94E00E947D0D26E82C9DE4
:104F5000C0012D9D900D1124885F9E4F8C0F9D1FC9
:104F6000DF91CF911F910F91FF90EF90DF90CF9045
:104F70000895CF92DF92EF92FF920F931F93CF93FA
:104F8000DF93EC016A017B0114161506160617065D
:104F900054F48A019B014DE250E060E070E08AEC3D
:104FA00094E00E947D0D26E82C9DC0012D9D900D62
:104FB000112482579E4F8C0F9D1FDF91CF911F911F
:104FC0000F91FF90EF90DF90CF9008958F929F9276
:104FD000AF92BF92EF92FF920F931F93CF93DF9305
:104FE000EC014A015B017901141615061606170635
:104FF00054F48A019B014BE350E060E070E08AECDE
:1050000094E00E947D0D22E8289DC001299D900D0D
:1050100011248C5E9D4FB7018C0F9D1FDF91CF91A6
:105020001F910F91FF90EF90BF90AF909F908F9046
:105030000D946E168F929F92AF92BF92EF92FF9255
:105040000F931F93CF93DF93EC014A015B0179012A
:10505000141615061606170654F48A019B014BE434
:1050600050E060E070E08AEC94E00E947D0D22E860
:10507000289DC001299D900D11248C5E9D4FB70184
:105080008C0F9D1FDF91CF911F910F91FF90EF909B
:10509000BF90AF909F908F900D941924CF93DF9382
:1050A000EC010F94411985EA95E099838883CE013C
:1050B0008E579F4F0F94DA15CE01885F9E4F0F9445
:1050C000DA15CE0182579E4F0E943DF1CE018C5ED3
:1050D0009D4FDF91CF910D945E168F929F92BF925C
:1050E000CF92DF92EF92FF920F931F93CF93DF93B4
:1050F000CDB7DEB7C055D1090FB6F894DEBF0FBEED
:10510000CDBF8C010F945A19480182E8880E911C7A
:10511000C4010F94141749E45AE2B801C4010F9472
:10512000EA1540E050E0BA01C4010F947E23680103
:1051300092E0C90ED11C1F921F921F921F92DF9204
:10514000CF9288E395E09F938F931F9280E5B82ECE
:10515000BF92CE0101967C019F938F930F949B2C5D
:10516000B701C4010F945625480198EF891A9EEFA4
:10517000990AC4010F9414174EE95AE2B801C40108
:105180000F94EA1540E050E0BA01C4010F947E2369
:105190001F921F921F921F92DF92CF928FE495E091
:1051A0009F938F931F92BF92FF92EF920F949B2C2D
:1051B000B701C4010F945625480182E7881A8EEF83
:1051C000980AC4010E9485F24AEF5AE2B801C4016C
:1051D0000E944DF140E050E0BA01C4010F947E23DB
:1051E0001F921F921F921F92DF92CF9289E695E045
:1051F0009F938F931F92BF92FF92EF920F949B2CDD
:105200000FB6F894DEBF0FBECDBFB701C4010F9437
:1052100056250C5E1D4FC8010F9416171F921F9242
:105220001F921F92DF92CF9282E895E09F938F9317
:105230001F92BF92FF92EF920F949B2CB701C8016F
:105240000F9456250FB6F894DEBF0FBECDBFC05BDE
:10525000DF4F0FB6F894DEBF0FBECDBFDF91CF9109
:105260001F910F91FF90EF90DF90CF90BF909F9094
:105270008F900895EF92FF920F931F93CF93DF9338
:105280007C0185EA95E0D7018D939C93E701CC5E84
:10529000DD4F89F087010A561D4F0C171D0759F085
:1052A00002581109D801ED91FC910280F381E02DA3
:1052B000C8011995F2CF870102571E4F69F0C01738
:1052C000D10751F0C658D109E881F9810280F381F4
:1052D000E02DCE011995F3CFE701C85FDE4F71F0E5
:1052E0000C171D0759F006581109D801ED91FC91D2
:1052F0000280F381E02DC8011995F2CF87010E5786
:105300001F4F69F0C017D10751F0C658D109E88185
:10531000F9810280F381E02DCE011995F3CFC70109
:10532000DF91CF911F910F91FF90EF900D94301965
:10533000CF93DF93EC010E943A29CE01DF91CF9108
:105340000C940DE78F929F92AF92BF92EF92FF92D3
:105350000F931F93CF93DF93EC014A015B01790117
:10536000141615061606170654F48A019B0147EE1B
:1053700050E060E070E08AEC94E00E947D0D22E84D
:10538000289DC001299D900D11248C5E9D4FB70171
:105390008C0F9D1FDF91CF911F910F91FF90EF9088
:1053A000BF90AF909F908F900D948F1661E070E04A
:1053B00080E090E0089561E070E080E090E0089582
:1053C00061E070E080E090E0089561E070E080E0EE
:1053D00090E00895CF92DF92EF92FF920F931F9388
:1053E000CF93DF93EC016A017B01141615061606B4
:1053F000170654F48A019B0149E151E060E070E036
:105400008AEC94E00E947D0D22E82C9DC0012D9D28
:10541000900D11248C5E9D4F8C0F9D1FDF91CF91BD
:105420001F910F91FF90EF90DF90CF900D94D824B3
:10543000AF92BF92CF92DF92EF92FF920F931F93A2
:10544000CF93DF93EC016A017B0159011416150615
:105450001606170654F48A019B0144E551E060E00A
:1054600070E08AEC94E00E947D0DE881F98106806D
:10547000F781E02D9501B701A601CE01DF91CF9113
:105480001F910F91FF90EF90DF90CF90BF90AF9062
:105490001994CF92DF92EF92FF920F931F93CF93C5
:1054A000DF93EC016A017B018901892B41F448E219
:1054B00051E060E070E08AEC94E00E94FE0C9801FC
:1054C000B701A601CE01DF91CF911F910F91FF90FF
:1054D000EF90DF90CF900C94182AAF92BF92CF92AA
:1054E000DF92EF92FF920F931F93CF93DF93EC0124
:1054F0006A017B015901141615061606170654F4A5
:105500008A019B0143E651E060E070E08AEC94E0A0
:105510000E947D0DE881F9810084F185E02D9501DF
:10552000B701A601CE01DF91CF911F910F91FF909E
:10553000EF90DF90CF90BF90AF901994CF92DF9211
:10554000EF92FF920F931F93CF93DF93EC016A01C9
:105550007B018901892B41F445E351E060E070E073
:105560008AEC94E00E94FE0C9801B701A601CE01DE
:10557000DF91CF911F910F91FF90EF90DF90CF902F
:105580000C946D2A8F929F92AF92BF92CF92DF922E
:10559000EF92FF920F931F93CF93DF93EC016A0179
:1055A0007B0148015901141615061606170654F416
:1055B0008A019B0142E751E060E070E08AEC94E0F0
:1055C0000E947D0DE881F9810284F385E02D95012B
:1055D0008401B701A601CE011995DF91CF911F91EA
:1055E0000F91FF90EF90DF90CF90BF90AF909F9082
:1055F0008F9008958F929F92AF92BF92CF92DF9239
:10560000EF92FF920F931F93CF93DF93EC016A0108
:105610007B0148015901892B41F442E451E060E0EB
:1056200070E08AEC94E00E94FE0C95018401B701C1
:10563000A601CE010E94C22ADF91CF911F910F9146
:10564000FF90EF90DF90CF90BF90AF909F908F90A2
:10565000089508958F929F92AF92BF92CF92DF925A
:10566000EF92FF920F931F93CF93DF93CDB7DEB7E7
:10567000A6970FB6F894DEBF0FBECDBF6C018901AF
:105680007C0184EDE81A88EFF80AB701CE01019693
:105690000F94CC11C7010F94D5134B015C01C701C6
:1056A0000F94CB13922F832FA5019401692F782F8C
:1056B000CE0147960E9414244FEE5EEB6DEA7EED1C
:1056C000CE0147960E94DF15C8010E94D621AB018A
:1056D000BC01CE0147960E94DF15C8010E94D62169
:1056E0004B015C01D801ED91FC910680F781E02D22
:1056F000C801199501E0A5019401BC01CE014796AE
:105700000E94C5194EEF5AECBA01CE0147960E948D
:10571000DF15CE0147960E94D621AB01BC01CE0118
:1057200001960F94F513CE0147960E94AF138C019A
:1057300020E030E040E050E060E070E0CE01019613
:105740000F94E7139E012F5F3F4F40E050E0BA01F6
:10575000C6010E94F83687E694E0988F8F8BCE01C1
:1057600047960E94D2138DEA94E29A838983CE01F0
:1057700001960E94C113A6960FB6F894DEBF0FBE25
:10578000CDBFDF91CF911F910F91FF90EF90DF90F0
:10579000CF90BF90AF909F908F900895CF93DF935D
:1057A000EC0188EF95E099838883CE01845D984F62
:1057B0002DEA34E2FC01318320830E94C113CE0123
:1057C000DF91CF910C94E634CF93DF93EC010E94EC
:1057D000CE2BCE01DF91CF910C940DE78F929F924B
:1057E000AF92BF92CF92DF92EF92FF920F931F93EF
:1057F000CF93DF93EC010E94B43288EF95E0998358
:1058000088838E010E5B184F1F921F9282E08F9348
:105810001F924801A12CB12CC12CD12CE12CF12CD0
:105820000DEE1EED98014DEE5EEFBA01CE01845DE6
:10583000984F0F947312FE01EE5BF64F10821182A7
:105840001282138234968DEA9EE4ADEABEED808327
:105850009183A283B3830F900F900F900F90BE019E
:10586000665B764F20E032E040E050E0CE01865BA0
:10587000944FDF91CF911F910F91FF90EF90DF90A8
:10588000CF90BF90AF909F908F900C9462E80C9453
:1058900000334F925F926F927F92AF92BF92CF92FE
:1058A000DF92EF92FF920F931F93CF93DF93CDB7C9
:1058B000DEB7CA58D1090FB6F894DEBF0FBECDBF10
:1058C0006C01CE0101960F945C0E56012EEBA21ACC
:1058D00026EFB20AF5014080518062807380CE01CC
:1058E00001960F941B0E1CE0E12EF12C00E010E05D
:1058F000A3019201BC01C601865B944F0E9415EB87
:10590000F5014081518162817381CE0101960E942F
:105910003022F601EA5BF64F80819181A281B3814A
:105920008A359A45AA45BA4561F4E12CF12C8701E4
:105930009E012F5F3F4F40E050E0BA01C6010E9438
:105940003A36CE0101960F941D0EC657DF4F0FB6A3
:10595000F894DEBF0FBECDBFDF91CF911F910F91A5
:10596000FF90EF90DF90CF90BF90AF907F906F90BF
:105970005F904F9008954F925F926F927F928F92B7
:105980009F92AF92BF92CF92DF92EF92FF920F93CE
:105990001F93CF93DF93CDB7DEB72C970FB6F89454
:1059A000DEBF0FBECDBF5C017C0126EBE21A24EF07
:1059B000F20A6C018EEBC81A86EFD80A4501EAEBB1
:1059C0008E1AE6EF9E0A60E0C7010E946EE86C3016
:1059D00071058105910508F4ADC0F60110821182B0
:1059E0001282138220E030E0A901BE01675F7F4F81
:1059F000C7010E944FEA009759F08C0120E030E087
:105A000044E850E060E070E081EB95E00E947D0D9D
:105A100024E030E040E050E0BE016B5F7F4FC70103
:105A20000E944FEA009759F08C0120E030E046E8F0
:105A300050E060E070E081EB95E00E947D0D8D818B
:105A40009E81AF81B885F40180839183A283B38363
:105A500028E030E040E050E0B601C7010E944FEA84
:105A6000009759F08C0120E030E049E850E060E018
:105A700070E081EB95E00E947D0D89859A85AB856C
:105A8000BC858F3E9E4BAD4ABE4D09F04BC0F40124
:105A900080819181A281B3818A359A45AA45BA4510
:105AA00009F040C0F60180819181A281B381811506
:105AB0009840A105B105B0F560E0C7010E946EE80D
:105AC000F601408051806280738093018201005F03
:105AD0001F4F2F4F3F4F601771078207930750F1F9
