:100000000C9421020C9452020C9452020C94520251
:100010000C9452020C9452020C9452020C94520210
:100020000C9452020C9452020C9452020C94520200
:100030000C9452020C9452020C9452020C945202F0
:100040000C9452020C9452020C9452020C945202E0
:100050000C94F6210C9452020C9452020C9452020D
:100060000C9452020C9452020C9452020C945202C0
:100070000C9452020C9452020C9452020C945202B0
:100080000C9452020C9452020C9452020C945202A0
:100090000C9452020C9452020C9452020C94520290
:1000A0000C9452020C9452020C9452020C94520280
:1000B0000C9452020C9452020C9452020C94520270
:1000C0000C9452020C9452020C9452020C94520260
:1000D0000C9452020C9452020C9452020C94520250
:1000E0000C945202C641D941F0410B422A4250427F
:1000F0007E420C946D0A0C94B9340C9494490C947F
:1001000026220C947D2B0C94762B0C94E6280C94D0
:10011000D9240C94F92F0C94C8490C94E9380C9408
:1001200001290C94C5080C94693F0C9404210C948B
:10013000640A0C94842B0C9411240C94C5270C9401
:100140007B2B0C949D490C9440210C942F400C94D3
:10015000B11D0C94DF280C94BB270C94D8280C9468
:10016000DE060C94C7370C944A030C941C400C9484
:100170007E0A0C9409170C946C260C94B72A0C94E4
:10018000D9410C947A3F0C946C0A0C94D8420C948C
:10019000742B0C94952B0C941C310C9408240C9407
:1001A000703F0C94690A0C94E0320C9466410C94F4
:1001B000AF370C94E4320C947F080C945E5C0C9482
:1001C00012310C94962E0C944D350C94A5370C944A
:1001D000552D0C940C270C9423310C941B2E0C944D
:1001E00014280C948E2B0C94DB400C94DB320C9472
:1001F000D7320C9421130C949B1D0C9421300C9439
:10020000123D0C9464360C94CD060C94A62B0C94E1
:100210006B0A0C947E420C940A240C9438330C9490
:1002200084370C94E2320C9436210C94984A0C9446
:10023000740A0C94A72E0C946E260C94E5320C9440
:1002400092220C94A9060C94A5020C940B310C94E8
:10025000BD370C9440030C947E2E0C94D0370C9434
:10026000961D0C94AD270C9459180C94F33C0C94E7
:10027000B0240C94B4270C94D8380C94142E0C94FD
:10028000A01D0C94F5210C94F3300C940B420C94AB
:10029000FB370C94F1130C94991D0C94DF380C94DB
:1002A000B4220C9488170C94A24A0C94572D0C94E9
:1002B000233D0C94693E0C94D9320C9431400C943B
:1002C0001C3D0C94DA400C94FB2F0C94F9270C94F1
:1002D00069410C94A02E0C948F2E0C941F170C9433
:1002E00083490C94891D0C94D1080C94AF270C946D
:1002F000E9210C94F0410C9428220C94C7080C942A
:10030000A54A0C947C490C942F210C9463360C94D0
:10031000FA3C0C94AD220C9421390C94FA340C94D0
:10032000FD2F0C94DD400C94122E0C94C8240C94D8
:100330002D310C94852E0C9418240C94D73E0C94DB
:1003400080410C94F7280C948B220C9425400C943B
:10035000CE270C94B92A0C94673E0C9450420C940E
:1003600031330C94BA1D0C94D2240C94931D0C942C
:100370002D180C94A34A0C9408290C94013D0C945C
:10038000AE080C94A71D0C9415270C94A9240C946A
:1003900021220C94D53E0C94D5020C9406240C9486
:1003A0000F240C949E4A0C94B7240C94A3220C9412
:1003B000B1370C940F330C942A420C94DD280C9422
:1003C000AE240C9413270C94192E0C942B300C94FF
:1003D0009F2B0C94C1240C94FA300C941C270C9481
:1003E000BB080C9416380C94B4080C9401310C948E
:1003F0001E400C940E270C94C6410C94D4060C9409
:100400007E490C946A1D0C94B6370C9439030C94F5
:1004100067410C94F3340C94F8300C940B3D0C941D
:10042000673F0C9442330C94F0280C949C220C945B
:10043000E3490C941A300C94F83C0C948A49A502B8
:10044000D50211241FBECFEFD1E2DEBFCDBF00E049
:100450000CBF10E1A0E0B2E0E4EBF5EC00E00BBF74
:1004600002C007900D92A836B107D9F72DE1A8E692
:10047000B0E101C01D92A832B207E1F712E0C0E27C
:10048000D2E000E006C021970109802FFE010E9402
:10049000665DCF31D10780E00807A9F70E945402BA
:1004A0000C94C8620C9400000E94590280E090E015
:1004B00008958F929F92AF92BF92CF92DF92EF9268
:1004C000FF920F931F938BE59AE10E946B0400E06B
:1004D00010E098014AE050E060E070E086E593E1CA
:1004E0000E945D0A40E050E0BA0189E492E10E9476
:1004F00006070E94090387E391E10E948E17882472
:100500008A94982C5401C12C98E2D92EE12CF12C1C
:1005100008E710E020E030E040E050E0BA0186E576
:1005200093E10E942A3488E690E11F910F91FF9099
:10053000EF90DF90CF90BF90AF909F908F900C94F2
:10054000912186E593E10C94A3330F931F9302E06E
:1005500010E020E030E046E152E060E272E08BE53E
:100560009AE10E94BE0304E010E020E030E046E0A3
:1005700052E066E272E086E593E10E94BE096DE218
:1005800072E089E492E10E94EC0624E630E040E06B
:1005900050E065E372E087E391E10E94291788E665
:1005A00090E11F910F910C946F2188E690E10E94D9
:1005B0002F2187E391E10E94091789E492E10E94CB
:1005C000CD0686E593E10E94B4088BE59AE10C9490
:1005D000390348EC50E060E070E086E593E10E946A
:1005E0003D3544EA56E060E070E08BE59AE10E9418
:1005F0003D354CE657E060E070E089E492E10E940E
:100600003D3540ED57E060E070E087E391E10C9408
:100610003D350E94E90240E050E0BA0189E492E1F0
:100620000E947D079C0141E050E060E070E086E5BB
:1006300093E10E94BC0B40E050E0BA0186E593E1F3
:100640000E94620B9C0140E050E0BA018BE59AE108
:100650000E949D0440E050E0BA018BE59AE10E94BF
:1006600070049C0140E050E0BA0187E391E10C94F2
:10067000631827E832E0FC01318320830C94C10524
:10068000CF93DF93EC010E943903CE01DF91CF912C
:100690000C94F1218F929F92AF92BF92CF92DF92F2
:1006A000EF92FF920F931F93CF93DF93EC017901A9
:1006B0008C0102571D4F812C912C54016C0186E650
:1006C000C81A8DEFD80AF80180819181A281B38187
:1006D000892B8A2B8B2BE9F0B501A401CE010E9456
:1006E0004A068823B1F0F60160817181828193818D
:1006F000F80120813181428153810E94475D672B3F
:10070000682B692B31F49701B501A401CE010E9439
:100710000C06FFEF8F1A9F0AAF0ABF0A0C5F1F4F2C
:1007200083E088169104A104B10469F68E0106568F
:100730001D4FF80180819181A281B381BC01CD015F
:100740006F5F7F4F8F4F9F4FC256DD4F288139819A
:100750004A815B810E94475DF801608371838283D7
:100760009383DF91CF911F910F91FF90EF90DF90D6
:10077000CF90BF90AF909F908F9008954F925F92CF
:100780006F927F928F929F92AF92BF92CF92DF92A1
:10079000EF92FF920F931F93CF93DF93EC015A01D7
:1007A000280139010E94050587E892E09983888332
:1007B000FE01E656FD4F10821182128213824E0115
:1007C00082E6881A8DEF980A81E090E0A0E0B0E020
:1007D000F40180839183A283B383A114B10441F413
:1007E00043E150E060E070E08CE392E00E94ED4372
:1007F000F4E04F165104610471047CF083E0C82ECC
:10080000D12CE12CF12C9301820146E150E060E013
:1008100070E08CE392E00E94EF44CE010E94450616
:10082000633071058105910589F0CE010E9445066E
:100830006B017C0103E010E020E030E04AE150E091
:1008400060E070E08CE392E00E94EF44C257DD4F1D
:100850008CE0DE011D928A95E9F7F501C12CD12CBF
:100860007601C414D504E604F70424F5808191814F
:10087000A281B38189939993A993B993619171915D
:1008800081919191611571058105910569F0D401FE
:100890002D913D914D915C910E94155DD4016D9318
:1008A0007D938D939C931397BFEFCB1ADB0AEB0AD2
:1008B000FB0AD7CFDF91CF911F910F91FF90EF905F
:1008C000DF90CF90BF90AF909F908F907F906F9070
:1008D0005F904F90089540E050E0BA010C942405D9
:1008E000CF92DF92EF92FF920F931F93CF93DF93FC
:1008F000EC016A017B01141615061606170654F45E
:100900008A019B014FE150E060E070E08FE892E0E7
:100910000E946C4426E82C9DC0012D9D900D112451
:100920008E579F4F8C0F9D1FDF91CF911F910F917D
:10093000FF90EF90DF90CF9008958F929F92AF92AB
:10094000BF92EF92FF920F931F93CF93DF93EC012F
:100950004A015B017901433051056105710554F08D
:100960008A019B014DE250E060E070E08FE892E088
:100970000E946C4422E8289DC001299D900D1124FD
:10098000885F9E4FB7018C0F9D1FDF91CF911F9104
:100990000F91FF90EF90BF90AF909F908F900C942D
:1009A00031328F929F92AF92BF92EF92FF920F934C
:1009B0001F93CF93DF93EC014A015B017901433030
:1009C00051056105710554F08A019B014DE350E02A
:1009D00060E070E08FE892E00E946C4422E8289D7D
:1009E000C001299D900D1124885F9E4FB7018C0F87
:1009F0009D1FDF91CF911F910F91FF90EF90BF90BE
:100A0000AF909F908F900C94DC3FCF93DF93EC01DD
:100A10000E9404358CE293E099838883CE018E573F
:100A20009F4F0E949D31CE01885F9E4F0E942132D0
:100A3000CE0186579E4F0E942132CE01845F9D4F8A
:100A4000DF91CF910C9421324F925F926F927F92FF
:100A50009F92AF92BF92CF92DF92EF92FF920F934D
:100A60001F93CF93DF93CDB7DEB7C055D1090FB633
:100A7000F894DEBF0FBECDBF8C010E941D3558011A
:100A800082E8A80EB11CC5010E94D73249EA56E09F
:100A9000B801C5010E94AD3140E050E0BA01C50186
:100AA0000E94413F680192E0C90ED11C1F921F9223
:100AB0001F921F92DF92CF9284EF92E09F938F93C9
:100AC0001F9280E58F93DE0111967D01BF93AF9356
:100AD0000E94A35FB701C5010E941941085F1E4F24
:100AE0000FB6F894DEBF0FBECDBF412C512C3201A2
:100AF0008DE0A82E83E0B82E90E5992ED801ED91D7
:100B0000FC910680F781E02DC80119957F926F92C4
:100B10005F924F92DF92CF92BF92AF921F929F92BD
:100B2000FF92EF920E94A35FB701C8010E94194192
:100B3000BFEF4B1A5B0A6B0A7B0A0E571F4F0FB6AB
:100B4000F894DEBF0FBECDBF93E049165104610497
:100B50007104A1F6C05BDF4F0FB6F894DEBF0FBE85
:100B6000CDBFDF91CF911F910F91FF90EF90DF905C
:100B7000CF90BF90AF909F907F906F905F904F907D
:100B80000895EF92FF920F931F93CF93DF938C0101
:100B90008CE293E0D8018D939C93E801C85FDE4F0F
:100BA000A1F07801B2E7EB1ABDEFFB0AEC16FD06E7
:100BB00061F0E2E8EE1AF108D701ED91FC910280B4
:100BC000F381E02DC7011995F1CF7801B2E8EB0E62
:100BD000F11CE114F10469F0CE15DF0551F0C6589F
:100BE000D109E881F9810280F381E02DCE011995C8
:100BF000F3CFC801DF91CF911F910F91FF90EF903C
:100C00000C94F334CF93DF93EC010E94C105CE0125
:100C1000DF91CF910C94F1218F929F92AF92BF926E
:100C2000EF92FF920F931F93CF93DF93EC014A0152
:100C30005B017901433051056105710554F08A016A
:100C40009B0141EA50E060E070E08FE892E00E9492
:100C50006C4422E8289DC001299D900D1124885FD5
:100C60009E4FB7018C0F9D1FDF91CF911F910F9168
:100C7000FF90EF90BF90AF909F908F900C94523266
:100C800061E070E080E090E0089563E070E080E073
:100C900090E00895CF92DF92EF92FF920F931F930F
:100CA000CF93DF93EC016A017B014330510561056D
:100CB000710554F08A019B0143EC50E060E070E064
:100CC0008FE892E00E946C4422E82C9DC0012D9D8B
:100CD000900D1124885F9E4F8C0F9D1FDF91CF9147
:100CE0001F910F91FF90EF90DF90CF900C949B405D
:100CF000AF92BF92CF92DF92EF92FF920F931F932A
:100D0000CF93DF93EC016A017B015901141615069C
:100D10001606170654F48A019B0144EE50E060E089
:100D200070E08FE892E00E946C44E881F9810680CF
:100D3000F781E02D9501B701A601CE01DF91CF919A
:100D40001F910F91FF90EF90DF90CF90BF90AF90E9
:100D50001994CF92DF92EF92FF920F931F93CF934C
:100D6000DF93EC016A017B018901892B41F442ED9B
:100D700050E060E070E08FE892E00E94ED4398015F
:100D8000B701A601CE01DF91CF911F910F91FF9086
:100D9000EF90DF90CF900C94780628E333E0FC01CD
:100DA000318320830C940C08CF93DF93EC010E94D5
:100DB000CD06CE01DF91CF910C94F121CF93DF933B
:100DC000EC010E940807C45FDE4F988181E089270B
:100DD0008883DF91CF910895CF93DF93EC010E9438
:100DE000AA0788E393E099838883FE01E85FFE4FBA
:100DF0008DE090E0A0E0B0E080839183A283B38394
:100E0000C45FDE4F1882DF91CF9108950C94BA072A
:100E1000AF92BF92CF92DF92EF92FF920F931F9308
:100E2000CF93DF93EC012091FD1C3091FE1C40918B
:100E3000FF1C5091001D6091011D7091021D8AE000
:100E4000A82EB12CC12CD12CE12CF12C00E010E00B
:100E50008091031D9091041D0E94795DA0E00E9485
:100E60001B5EE9F4FE01E45FFE4F80811F928F93C9
:100E7000349783818F9382818F9381818F93808137
:100E80008F9380E493E09F938F930E948F5F8DB741
:100E90009EB708960FB6F8949EBF0FBE8DBF2091E7
:100EA000FD1C3091FE1C4091FF1C5091001D609173
:100EB000011D7091021D8091031D9091041DA1E000
:100EC0000E940F5E2093FD1C3093FE1C4093FF1C7C
:100ED0005093001D6093011D7093021D8093031DAC
:100EE0009093041DDF91CF911F910F91FF90EF9090
:100EF000DF90CF90BF90AF900895CF92DF92EF92A6
:100F0000FF920F931F93CF93DF93EC016A017B0154
:100F1000141615061606170654F48A019B014FE1B4
:100F200050E060E070E084E593E00E946C4426E8C5
:100F30002C9DC0012D9D900D11248E579F4F8C0F1D
:100F40009D1FDF91CF911F910F91FF90EF90DF9048
:100F5000CF900895CF93DF93EC010E9404358BED81
:100F600093E099838883CE018E579F4FDF91CF9175
:100F70000C94BE22EF92FF920F931F93CF93DF93B7
:100F8000CDB7DEB7C055D1090FB6F894DEBF0FBE9E
:100F9000CDBF8C010E941D35780182E8E80EF11C5E
:100FA000C7010E9406244FE758E0B801C7010E941C
:100FB000CE2240E050E0BA01C7010E94413F1F929B
:100FC0001F921F921F920E5F1F4F1F930F938EEB66
:100FD00093E09F938F931F9280E58F938E010F5F15
:100FE0001F4F1F930F930E94A35FB801C7010E9478
:100FF00019410FB6F894DEBF0FBECDBFC05BDF4F07
:101000000FB6F894DEBF0FBECDBFDF91CF911F9119
:101010000F91FF90EF900895EF92FF920F931F931F
:10102000CF93DF938C018BED93E0F8019183808364
:101030007801F2E8EF0EF11CE114F10481F0E8010F
:10104000C85FDE4FCE15DF0551F0C658D109E881E3
:10105000F9810280F381E02DCE011995F3CFC8010B
:10106000DF91CF911F910F91FF90EF900C94F3348B
:10107000CF93DF93EC010E940C08CE01DF91CF915A
:101080000C94F12161E070E080E090E008958F928F
:101090009F92AF92BF92CF92DF92EF92FF920F9307
:1010A0001F93CF93DF93EC016A017B014801590143
:1010B000141615061606170654F48A019B014EE80D
:1010C00050E060E070E084E593E00E946C44E881C9
:1010D000F9810680F781E02D95018401B701A60111
:1010E000CE011995DF91CF911F910F91FF90EF9055
:1010F000DF90CF90BF90AF909F908F9008958F9288
:101100009F92AF92BF92CF92DF92EF92FF920F9396
:101110001F93CF93DF93EC016A017B0148015901D2
:10112000892B41F44CE750E060E070E084E593E007
:101130000E94ED4395018401B701A601CE010E94F2
:101140004708DF91CF911F910F91FF90EF90DF90B3
:10115000CF90BF90AF909F908F9008958451994FFA
:1011600021E0FC01208308952EE234E0FC0131836C
:1011700020830C940610CF93DF93EC010E94B408F7
:10118000CE01DF91CF910C94F1210C948B150F932C
:101190001F9340E050E0BA010E94FF101F910F9191
:1011A00008954F925F926F927F928F929F92AF922B
:1011B000BF92CF92DF92EF92FF920F931F93CF9344
:1011C000DF93CDB7DEB72A970FB6F894DEBF0FBE18
:1011D000CDBF7C014901CE0101960E944C305701E0
:1011E00024E1A21A29EFB20AF50110826701F3E1A6
:1011F000CF1AF9EFDF0A412C512C3201C7010E94AE
:101200003E114616570668067906D4F4B301A201CA
:10121000C7010E946111882351F0F60100811181FC
:1012200022813381B301A201C7010E94C510FFEFE3
:101230004F1A5F0A6F0A7F0A24E0C20ED11CDECF6C
:10124000CE0101960E94EB30B401CE0101960E94BE
:10125000EE30F701E851F94F00811181228133818D
:10126000061717072807390720F4608371838283E4
:1012700093834081518162817381C7010E94201450
:10128000F501808187010350194F97012C51394F87
:1012900069018823B9F157013FEFA31A38EFB30A68
:1012A000F50180819181A281B3810196A11DB11DBB
:1012B00080839183A283B383F80180819181A2818D
:1012C000B3810597A105B105A4F4F60140815181D0
:1012D00062817381C7010E943816F8018081918173
:1012E000A281B3810196A11DB11D80839183A28348
:1012F000B383F5014081518162817381C7010E94EE
:10130000AF1411C0F80180819181A281B3811816B8
:1013100019061A061B063CF40197A109B10980833E
:101320009183A283B383F60180819181A281B381ED
:101330000196A11DB11D80839183A283B3838CEBA1
:101340009AE09A838983CE0101960E94B04A2A9638
:101350000FB6F894DEBF0FBECDBFDF91CF911F91C6
:101360000F91FF90EF90DF90CF90BF90AF909F9044
:101370008F907F906F905F904F9008954F925F9203
:101380006F927F928F929F92AF92BF92CF92DF9295
:10139000EF92FF920F931F93CF93DF93EC015A01CB
:1013A000280139010E942C0E8EE294E099838883F3
:1013B000FE01EC51F94F1082118212821382349691
:1013C00010821182128213823496108271961082DA
:1013D0001182128213823496108211821282138239
:1013E000A114B10441F44EE150E060E070E083EEFE
:1013F00093E00E94ED43CE010E943E1164157505F5
:101400008605970579F0CE010E943E116B017C01A3
:10141000930182014FE150E060E070E083EE93E0E1
:101420000E94EF44CE010E943E1164307105810597
:10143000910589F0CE010E943E116B017C0104E010
:1014400010E020E030E042E250E060E070E083EE47
:1014500093E00E94EF4475018E010351194F812CD6
:10146000912C5401CE010E943E1186169706A806C3
:10147000B90694F4F70181919191A191B1917F0105
:10148000F80181939193A193B1938F01FFEF8F1A8C
:101490009F0AAF0ABF0AE6CFDF91CF911F910F914C
:1014A000FF90EF90DF90CF90BF90AF909F908F9084
:1014B0007F906F905F904F9008950F931F930E94BD
:1014C000830E1F910F91089560E170E080E090E03D
:1014D00008950A9608950895089522ED35E0FC01D7
:1014E000318320830C94C14ACF93DF93EC010E9497
:1014F0006D0ACE01DF91CF910C94F1218F929F92D2
:10150000AF92BF92EF92FF920F931F93CF93DF930F
:10151000CDB7DEB7E0970FB6F894DEBF0FBECDBFF4
:101520007C01CE0101960E94B34A82ED95E09A8338
:10153000898320E030E0AE01435D5F4FBE016F5F05
:101540007F4FC7018E579F4F0E94C519009759F0D2
:101550008C0120E030E04FE454E060E070E084E48F
:1015600094E00E946C44CE0101960E949358BE0103
:10157000675D7F4FCE0101960E94BA53009759F0E4
:101580008C0120E030E049E554E060E070E084E464
:1015900094E00E946C4489A49AA4ABA4BCA48114D6
:1015A000910409F474C0BE016B5D7F4FCE010196BA
:1015B0000E94BA53009759F08C0120E030E046E6D3
:1015C00054E060E070E084E494E00E946C4481E0C8
:1015D0008816910429F0A2E08A16910489F15AC074
:1015E000CE014B960E944C30BE01655E7F4FCE010E
:1015F00001960E947F58009759F08C0120E030E05E
:1016000043E754E060E070E084E494E00E946C44BE
:101610004DA15EA16FA178A5D701ED91FC91068443
:10162000F785E02D9E01255E3F4FC70119958CEB94
:101630009AE09C8F8B8FCE014B960E94B04A24C0BB
:10164000BE01655E7F4FCE0101960E940F53009749
:1016500059F08C0120E030E048E854E060E070E0B0
:1016600084E494E00E946C440B8D1C8D2D8D3E8D86
:101670004DA15EA16FA178A5D701ED91FC910088E5
:10168000F189E02DC701199500E010E005C003E0E5
:1016900010E002C002E010E0CE0101960E946D0A47
:1016A000C801E0960FB6F894DEBF0FBECDBFDF9144
:1016B000CF911F910F91FF90EF90BF90AF909F90AF
:1016C0008F900895CF92DF92EF92FF920F931F9326
:1016D000CF93DF93EC016A017B0114161506160601
:1016E000170654F48A019B0147E550E060E070E082
:1016F00084E494E00E946C4426E82C9DC0012D9D5A
:10170000900D1124845C9E4F8C0F9D1FDF91CF9113
:101710001F910F91FF90EF90DF90CF900895CF929F
:10172000DF92EF92FF920F931F93CF93DF93EC0121
:101730006A017B01141615061606170654F48A0171
:101740009B014EE550E060E070E084E494E00E948C
:101750006C4426E82C9DC0012D9D900D11248E53C4
:101760009E4F8C0F9D1FDF91CF911F910F91FF9086
:10177000EF90DF90CF9008958F929F92AF92BF929B
:10178000EF92FF920F931F93CF93DF93EC014A01E7
:101790005B017901443051056105710554F08A01FE
:1017A0009B014CE650E060E070E084E494E00E942D
:1017B0006C4422E8289DC001299D900D1124885B6E
:1017C0009D4FB7018C0F9D1FDF91CF911F910F91FE
:1017D000FF90EF90BF90AF909F908F900C94592303
:1017E0008F929F92AF92BF92EF92FF920F931F93AF
:1017F000CF93DF93EC014A015B01790114161506C2
:101800001606170654F48A019B0146E750E060E093
:1018100070E084E494E00E946C4422E8289DC001BA
:10182000299D900D1124805B9B4FB7018C0F9D1F4C
:10183000DF91CF911F910F91FF90EF90BF90AF90EC
:101840009F908F900C944C2F8F929F92AF92BF924B
:10185000EF92FF920F931F93CF93DF93EC014A0116
:101860005B017901141615061606170654F48A0151
:101870009B0140E850E060E070E084E494E00E9466
:101880006C4422E8289DC001299D900D11248E52A0
:101890009B4FB7018C0F9D1FDF91CF911F910F912F
:1018A000FF90EF90BF90AF909F908F900C948E25FB
:1018B0008F929F92AF92BF92EF92FF920F931F93DE
:1018C000CF93DF93EC014A015B01790114161506F1
:1018D0001606170654F48A019B014AE850E060E0BE
:1018E00070E084E494E00E946C4422E8289DC001EA
:1018F000299D900D11248C5A9A4FB7018C0F9D1F72
:10190000DF91CF911F910F91FF90EF90BF90AF901B
:101910009F908F900C94C13D8F929F92AF92BF92F7
:10192000EF92FF920F931F93CF93DF93EC014A0145
:101930005B017901141615061606170654F48A0180
:101940009B0144E950E060E070E084E494E00E9490
:101950006C4422E8289DC001299D900D11248A52D3
:101960009A4FB7018C0F9D1FDF91CF911F910F915F
:10197000FF90EF90BF90AF909F908F900C94C129F3
:101980008F929F92AF92BF92EF92FF920F931F930D
:10199000CF93DF93EC014A015B0179011416150620
:1019A0001606170654F48A019B014FE950E060E0E7
:1019B00070E084E494E00E946C4422E8289DC00119
:1019C000299D900D1124885A994FB7018C0F9D1FA6
:1019D000DF91CF911F910F91FF90EF90BF90AF904B
:1019E0009F908F900C945F2C8F929F92AF92BF929A
:1019F000EF92FF920F931F93CF93DF93EC014A0175
:101A00005B017901443051056105710554F08A018B
:101A10009B0140EB50E060E070E084E494E00E94C1
:101A20006C4422E8289DC001299D900D1124885BFB
:101A30009D4FB7018C0F9D1FDF91CF911F910F918B
:101A4000FF90EF90BF90AF909F908F900C94DC3FF1
:101A50008F929F92AF92BF92EF92FF920F931F933C
:101A6000CF93DF93EC014A015B017901141615064F
:101A70001606170654F48A019B014AEB50E060E019
:101A800070E084E494E00E946C4422E8289DC00148
:101A9000299D900D1124805B9B4FB7018C0F9D1FDA
:101AA000DF91CF911F910F91FF90EF90BF90AF907A
:101AB0009F908F900C94DC3F8F929F92AF92BF9239
:101AC000EF92FF920F931F93CF93DF93EC014A01A4
:101AD0005B017901141615061606170654F48A01DF
:101AE0009B0144EC50E060E070E084E494E00E94EC
:101AF0006C4422E8289DC001299D900D11248E522E
:101B00009B4FB7018C0F9D1FDF91CF911F910F91BC
:101B1000FF90EF90BF90AF909F908F900C94DC3F20
:101B20008F929F92AF92BF92EF92FF920F931F936B
:101B3000CF93DF93EC014A015B017901141615067E
:101B40001606170654F48A019B014EEC50E060E043
:101B500070E084E494E00E946C4422E8289DC00177
:101B6000299D900D11248C5A9A4FB7018C0F9D1FFF
:101B7000DF91CF911F910F91FF90EF90BF90AF90A9
:101B80009F908F900C94DC3F8F929F92AF92BF9268
:101B9000EF92FF920F931F93CF93DF93EC014A01D3
:101BA0005B017901141615061606170654F48A010E
:101BB0009B0148ED50E060E070E084E494E00E9416
:101BC0006C4422E8289DC001299D900D11248A5261
:101BD0009A4FB7018C0F9D1FDF91CF911F910F91ED
:101BE000FF90EF90BF90AF909F908F900C94DC3F50
:101BF0008F929F92AF92BF92EF92FF920F931F939B
:101C0000CF93DF93EC014A015B01790114161506AD
:101C10001606170654F48A019B0143EE50E060E07B
:101C200070E084E494E00E946C4422E8289DC001A6
:101C3000299D900D1124885A994FB7018C0F9D1F33
:101C4000DF91CF911F910F91FF90EF90BF90AF90D8
:101C50009F908F900C94DC3FEF92FF920F931F9315
:101C6000CF93DF93EC010E94913380EE95E099834E
:101C70008883CE01845C9E4F0E949D31CE018E539D
:101C80009E4F0E94B12E8E01085B1D4F7E0180EB9E
:101C9000E81A8BEFF80AC8010E9449230E571F4F1C
:101CA0000E151F05C1F7C8010E943C2FCE018E52B0
:101CB0009B4F0E947E25CE018C5A9A4F0E94B13DC7
:101CC000CE018A529A4F0E94B129CE01885A994F6B
:101CD0000E944F2CFE01E652F94F81E0808332963C
:101CE000108211821282138231978083C052D94FA1
:101CF000188219821A821B82DF91CF911F910F9156
:101D0000FF90EF9008952F923F924F925F926F92C3
:101D10007F928F929F92AF92BF92CF92DF92EF927B
:101D2000FF920F931F93CF93DF93CDB7DEB7C055CC
:101D3000D1090FB6F894DEBF0FBECDBF7C014A01BA
:101D40005B01B901A8010E94A133670124ECC21A0A
:101D50002EEFD20AC6010E94D73241E253E1B70109
:101D6000C6010E94AD3140E050E0BA01C6010E94B8
:101D7000413F370132E0630E711C1F921F921F9288
:101D80001F927F926F9284EF92E09F938F931F92A6
:101D900080E5582E5F928E010F5F1F4F1F930F93A8
:101DA0000E94A35FB801C6010E94194167018EE33A
:101DB000C81A8EEFD80AC6010E94F92F41EF53E1ED
:101DC000B701C6010E94C12E40E050E0BA01C60131
:101DD0000E94413F1F921F921F921F927F926F920B
:101DE00089EA94E09F938F931F925F921F930F93C2
:101DF0000E94A35FB801C6010E941941670198EBD8
:101E0000C91A9DEFD90A0FB6F894DEBF0FBECDBF39
:101E1000212C312C2101D601ED91FC910680F78116
:101E2000E02DC60119955F924F923F922F927F92BB
:101E30006F9228E335E03F932F931F9290E59F9395
:101E40001F930F930E94A35FB801C6010E9419411E
:101E5000AFEF2A1A3A0A4A0A5A0AB2E8CB0ED11C44
:101E60000FB6F894DEBF0FBECDBF34E023163104A9
:101E70004104510481F66701B0EBCB1ABBEFDB0ADA
:101E8000C6010E94FB2F1F921F921F921F927F92EA
:101E90006F9281EC94E09F938F931F9220E52F9394
:101EA0001F930F930E94A35FB801C6010E941941BE
:101EB00067013EE2C31A3BEFD30AC6010E940C271A
:101EC0001F921F921F921F927F926F928BED94E050
:101ED0009F938F931F9280E58F931F930F930E9480
:101EE000A35FB801C6010E94194167019CEAC91AA3
:101EF0009AEFD90AC6010E94D53E1F921F921F92E7
:101F00001F927F926F9281EF94E09F938F931F9225
:101F1000A0E5AF931F930F930E94A35F0FB6F894B1
:101F2000DEBF0FBECDBFB801C6010E9419416701D7
:101F30003AE2C31A3AEFD30AC6010E94742B1F92E9
:101F40001F921F921F927F926F9288E095E09F935D
:101F50008F931F9280E58F931F930F930E94A35F2F
:101F6000B801C6010E941941670198EAC91A99EFA0
:101F7000D90AC6010E94122E1F921F921F921F9211
:101F80007F926F928EE195E09F938F931F92A0E5D1
:101F9000AF931F930F930E94A35FB801C6010E94E5
:101FA000194100E110E020E030E0B501A401C701D3
:101FB0000E94C3350FB6F894DEBF0FBECDBF0097A9
:101FC00059F08C0120E030E042ED51E060E070E03B
:101FD00084E494E00E946C44C05BDF4F0FB6F89439
:101FE000DEBF0FBECDBFDF91CF911F910F91FF904C
:101FF000EF90DF90CF90BF90AF909F908F907F90A9
:102000006F905F904F903F902F900895EF92FF92C6
:102010000F931F93CF93DF93EC0180EE95E09983AC
:1020200088838E01085A194FA1F07E0186E2E81AD2
:1020300089EFF80AE016F10661F0A2E8EA1AF10861
:10204000D701ED91FC910280F381E02DC701199534
:10205000F1CF7E01BAE2EB1ABAEFFB0A71F00E156E
:102060001F0559F002581109D801ED91FC91028029
:10207000F381E02DC8011995F2CF8E010C5A1A4F49
:1020800079F0E016F10661F0B2E8EB1AF108D70139
:10209000ED91FC910280F381E02DC7011995F1CFFC
:1020A0007E01BEE2EB1ABBEFFB0A71F00E151F05B5
:1020B00059F002581109D801ED91FC910280F38189
:1020C000E02DC8011995F2CF8E01005B1B4F79F00E
:1020D000E016F10661F0B2E8EB1AF108D701ED91D4
:1020E000FC910280F381E02DC7011995F1CF7E01AB
:1020F000B8EBEB1ABDEFFB0A71F00E151F0559F096
:1021000002581109D801ED91FC910280F381E02D74
:10211000C8011995F2CF8E010E531E4F79F0E016CB
:10212000F10661F0B6E8EB1AF108D701ED91FC91E8
:102130000280F381E02DC7011995F1CF7E01B4EC47
:10214000EB1ABEEFFB0A71F00E151F0559F0065889
:102150001109D801ED91FC910280F381E02DC801B5
:102160001995F2CFCE01DF91CF911F910F91FF9082
:10217000EF900C940F34CF93DF93EC010E94061084
:10218000CE01DF91CF910C94F1218F929F92AF926B
:10219000BF92CF92DF92EF92FF920F931F93CF9354
:1021A000DF93EC016A017B0148015901443051057C
:1021B0006105710554F08A019B0145EE51E060E034
:1021C00070E084E494E00E946C4422E82C9DC001FD
:1021D0002D9D900D1124885B9D4FB501A4018C0F9E
:1021E0009D1FDF91CF911F910F91FF90EF90DF9096
:1021F000CF90BF90AF909F908F900C947A238F9246
:102200009F92AF92BF92CF92DF92EF92FF920F9385
:102210001F93CF93DF93EC016A017B0148015901C1
:10222000141615061606170654F48A019B014FEE84
:1022300051E060E070E084E494E00E946C4422E8A5
:102240002C9DC0012D9D900D1124805B9B4FB501ED
:10225000A4018C0F9D1FDF91CF911F910F91FF90D3
:10226000EF90DF90CF90BF90AF909F908F900C94A5
:102270006D2F61E070E080E090E0089564E070E030
:1022800080E090E0089561E070E080E090E00895E3
:1022900061E070E080E090E0089561E070E080E04F
:1022A00090E0089561E070E080E090E0089561E0E2
:1022B00070E080E090E0089561E070E080E090E000
:1022C0000895CF92DF92EF92FF920F931F93CF93D7
:1022D000DF93EC016A017B01443051056105710512
:1022E00054F08A019B0143E452E060E070E084E432
:1022F00094E00E946C4422E82C9DC0012D9D900D1D
:102300001124885B9D4F8C0F9D1FDF91CF911F91F2
:102310000F91FF90EF90DF90CF900C949B40CF9265
:10232000DF92EF92FF920F931F93CF93DF93EC0115
:102330006A017B01141615061606170654F48A0165
:102340009B014DE452E060E070E084E494E00E9480
:102350006C4422E82C9DC0012D9D900D1124805BC2
:102360009B4F8C0F9D1FDF91CF911F910F91FF907D
:10237000EF90DF90CF900C949B40CF92DF92EF9242
:10238000FF920F931F93CF93DF93EC016A017B01C0
:10239000141615061606170654F48A019B0147E524
:1023A00052E060E070E084E494E00E946C4422E833
:1023B0002C9DC0012D9D900D11248E529B4F8C0F92
:1023C0009D1FDF91CF911F910F91FF90EF90DF90B4
:1023D000CF900C949B40CF92DF92EF92FF920F939D
:1023E0001F93CF93DF93EC016A017B01141615064E
:1023F0001606170654F48A019B0141E652E060E09C
:1024000070E084E494E00E946C4422E82C9DC001BA
:102410002D9D900D11248C5A9A4F8C0F9D1FDF918A
:10242000CF911F910F91FF90EF90DF90CF900C9480
:102430009B40CF92DF92EF92FF920F931F93CF9327
:10244000DF93EC016A017B011416150616061706C8
:1024500054F48A019B014BE652E060E070E084E4B2
:1024600094E00E946C4422E82C9DC0012D9D900DAB
:1024700011248A529A4F8C0F9D1FDF91CF911F918B
:102480000F91FF90EF90DF90CF900C949B40CF92F4
:10249000DF92EF92FF920F931F93CF93DF93EC01A4
:1024A0006A017B01141615061606170654F48A01F4
:1024B0009B0146E752E060E070E084E494E00E9413
:1024C0006C4422E82C9DC0012D9D900D1124885A4A
:1024D000994F8C0F9D1FDF91CF911F910F91FF900E
:1024E000EF90DF90CF900C949B408F929F92AF9291
:1024F000BF92CF92DF92EF92FF920F931F93CF93F1
:10250000DF93CDB7DEB76A970FB6F894DEBF0FBE84
:10251000CDBF7C014A015B01690114161506160640
:10252000170654F48A019B0144EC53E060E070E02C
:1025300084E494E00E946C44D701ED91FC91028800
:10254000F389E02D9601B501A401C7011995CE01CB
:1025500001960E94B34A82ED95E09A83898341E017
:1025600050E060E070E0CE0101960E94574D009768
:1025700059F08C0120E030E045ED53E060E070E080
:1025800084E494E00E946C44B501A401CE0101965C
:102590000E94574D009759F08C0120E030E04BED40
:1025A00053E060E070E084E494E00E946C44B60183
:1025B000CE0101960E941251009759F08C0120E043
:1025C00030E042EE53E060E070E084E494E00E948A
:1025D0006C4401E010E020E030E0A901BE016F5F33
:1025E0007F4FC7018E579F4F0E948C1988309105ED
:1025F00021F4C7010E9498350DC0009759F08C0155
:1026000020E030E041EF53E060E070E084E494E0EB
:102610000E946C44CE0101960E946D0A6A960FB624
:10262000F894DEBF0FBECDBFDF91CF911F910F9108
:10263000FF90EF90DF90CF90BF90AF909F908F90E2
:102640000895CF92DF92EF92FF920F931F93CF9353
:10265000DF93EC016A017B018901892B41F445EA92
:1026600053E060E070E084E494E00E94ED43980160
:10267000B701A601CE01DF91CF911F910F91FF907D
:10268000EF90DF90CF900C9475124F925F926F9203
:102690007F928F929F92AF92BF92EF92FF920F9391
:1026A0001F93CF93DF93CDB7DEB76A970FB6F89439
:1026B000DEBF0FBECDBF7C012A013B01480159019D
:1026C000141615061606170654F48A019B014DEFE1
:1026D00053E060E070E084E494E00E946C44D70131
:1026E000ED91FC910488F589E02D95018401B301F9
:1026F000A201C7011995CE0101960E94B34A82ED4D
:1027000095E09A83898342E050E060E070E0CE017A
:1027100001960E94574D009759F08C0120E030E05F
:102720004EE054E060E070E084E494E00E946C4489
:10273000B301A201CE0101960E94574D009759F0B6
:102740008C0120E030E044E154E060E070E084E49B
:1027500094E00E946C44B501A401CE0101960E9450
:10276000CE4C009759F08C0120E030E04BE154E072
:1027700060E070E084E494E00E946C4401E010E0CA
:1027800020E030E0A901BE016F5F7F4FC7018E5787
:102790009F4F0E948C19009759F08C0120E030E087
:1027A00046E254E060E070E084E494E00E946C440F
:1027B000CE0101960E946D0A6A960FB6F894DEBFAC
:1027C0000FBECDBFDF91CF911F910F91FF90EF9082
:1027D000BF90AF909F908F907F906F905F904F9041
:1027E00008958F929F92AF92BF92CF92DF92EF9215
:1027F000FF920F931F93CF93DF93EC016A017B014C
:1028000048015901892B41F442EB53E060E070E04C
:1028100084E494E00E94ED4395018401B701A60190
:10282000CE010E944513DF91CF911F910F91FF9030
:10283000EF90DF90CF90BF90AF909F908F900895D2
:102840008F929F92AF92BF92CF92DF92EF92FF92C0
:102850000F931F93CF93DF93CDB7DEB7CF58D10936
:102860000FB6F894DEBF0FBECDBFDC01A652B94F44
:102870002C91FC01E452F94F21110AC00081118111
:1028800022813381041715072607370711F453C037
:102890001C9240835183628373834A015B017C01F4
:1028A0006C018EE2C81A8BEFD80AC6010E949B40C9
:1028B000882309F440C0CE018D579F4F0E945139A3
:1028C00087010C5A1A4FC8010E949B40882331F09F
:1028D000BE016D577F4FC8010E94E23DCE010196B7
:1028E0000E945024B501A401CE0101960E94CE4C55
:1028F000009759F08C0120E030E04BE952E060E0B5
:1029000070E084E494E00E946C44C7010E94453565
:10291000AB01BC018E010F5F1F4F9E012D573F4F32
:10292000C6010E94AF25C8010E941124CE018D5717
:102930009F4F0E94D838C157DF4F0FB6F894DEBFC3
:102940000FBECDBFDF91CF911F910F91FF90EF9000
:10295000DF90CF90BF90AF909F908F9008958F920F
:102960009F92AF92BF92CF92DF92EF92FF920F931E
:102970001F93CF93DF93CDB7DEB7CF58D1090FB6F2
:10298000F894DEBF0FBECDBFDC01A552B94F2C912C
:10299000FC01E052F94F21110AC00081118122810E
:1029A0003381041715072607370711F457C01C9207
:1029B00040835183628373834A015B017C016C0114
:1029C0008EE2C81A8BEFD80AC6010E949B4088236A
:1029D00009F444C0CE018D579F4F0E9451398701A1
:1029E0000C5A1A4FC8010E949B40882331F0BE0147
:1029F0006D577F4FC8010E94E23DCE0101960E94B3
:102A00005024B501A401CE0101960E94CE4C00973E
:102A100059F08C0120E030E046EC52E060E070E0DC
:102A200084E494E00E946C44C7010E944535AB01E8
:102A3000BC014F5F5F4F6F4F7F4F8E010F5F1F4F86
:102A40009E012D573F4FC6010E94AF25C8010E942D
:102A50001124CE018D579F4F0E94D838C157DF4FA8
:102A60000FB6F894DEBF0FBECDBFDF91CF911F919F
:102A70000F91FF90EF90DF90CF90BF90AF909F901D
:102A80008F900895CF92DF92EF92FF920F931F9352
:102A9000CF93DF93CDB7DEB72D970FB6F894DEBF97
:102AA0000FBECDBF6C018B010C5A1A4FC8010E949A
:102AB0009B408823A9F0CE0101960E945139BE01A6
:102AC0006F5F7F4FC8010E94E23DBE016F5F7F4F85
:102AD000C6010E946839CE0101960E94D8380BC009
:102AE000E12CF12C870120E030E0A90160E070E0EA
:102AF000C6010E94BF39C6012D960FB6F894DEBFFD
:102B00000FBECDBFDF91CF911F910F91FF90EF903E
:102B1000DF90CF9008954F925F926F927F92AF9225
:102B2000BF92CF92DF92EF92FF920F931F93CF93BA
:102B3000DF93CDB7DEB7CF50D2400FB6F894DEBFEB
:102B40000FBECDBF6C01CE018D5F9D4F0E945139EC
:102B500056018CEAA81A8AEFB80AC5010E949B4068
:102B6000882331F0BE016D5F7D4FC5010E94E23DBB
:102B7000C6010E9445352B013C0156019AE2A91A73
:102B80009AEFB90AC5010E949B408823A1F0CE01AB
:102B900001960E945427CE0101967C0107E010E0C7
:102BA0009E012D5F3D4FB301A201C5010E94E229A4
:102BB000C7010E941527560198EAA91A99EFB90A88
:102BC000C5010E949B408823C1F18DE595E09F934C
:102BD0008F9382E0C80ED11CDF92CF928FE695E0F2
:102BE0009F938F9381E08F931F926E019DEFC91A7F
:102BF0009EEFD90ADF92CF920E94A35FCE5FDD4F96
:102C00001882C250D240B601CE0101960E944A28D5
:102C1000CE0101967C0107E010E09E012D5F3D4F43
:102C2000B301A201C5010E94802CC7010E94B427F4
:102C30000FB6F894DEBF0FBECDBFCE018D5F9D4FA6
:102C40000E94D838C15FDD4F0FB6F894DEBF0FBECB
:102C5000CDBFDF91CF911F910F91FF90EF90DF904B
:102C6000CF90BF90AF907F906F905F904F900895FE
:102C70002F923F924F925F926F927F928F929F928C
:102C8000AF92BF92CF92DF92EF92FF920F931F937A
:102C9000CF93DF93CDB7DEB7CF50D2400FB6F894C5
:102CA000DEBF0FBECDBF6C011A01962E872ECE015E
:102CB0008D5F9D4F0E94513986010C5A1A4FC801F1
:102CC0000E949B40882331F0BE016D5F7D4FC8019B
:102CD0000E94E23DC6010E9445352B013C012FEFC9
:102CE000421A520A620A720A56018AE2A81A8AEF46
:102CF000B80AC5010E949B40882341F1CE0101968C
:102D00000E945427A101692D782DCE0101960E94C1
:102D1000CE4C009759F08C0120E030E047E653E0BC
:102D200060E070E084E494E00E946C44CE0101967F
:102D30007C0102E010E09E012D5F3D4FB301A20136
:102D4000C5010E94E229C7010E941527560198EA91
:102D5000A91A99EFB90AC5010E949B408823D1F1B5
:102D60008F929F923F922F928CE895E09F938F9342
:102D700022E0C20ED11CDF92CF9280EA95E09F93B1
:102D80008F9381E08F931F928E010D5F1E4F1F93D3
:102D90000F930E94A35FCE5FDD4F1882C250D240D6
:102DA000B801CE0101960E944A28CE0101967C010D
:102DB00002E010E09E012D5F3D4FB301A201C5016D
:102DC0000E94802CC7010E94B4270FB6F894DEBF82
:102DD0000FBECDBFCE018D5F9D4F0E94D838C15F21
:102DE000DD4F0FB6F894DEBF0FBECDBFDF91CF91A0
:102DF0001F910F91FF90EF90DF90CF90BF90AF9019
:102E00009F908F907F906F905F904F903F902F900A
:102E10000895CF93DF93EC018AEF95E0998388833F
:102E2000CE01885F9E4F2CEB3AE0FC01318320837A
:102E30000E94B04ACE01DF91CF910C942D18CF9310
:102E4000DF93EC010E940917CE01DF91CF910C9422
:102E5000F121CF92DF92EF92FF92CF93DF93EC01BB
:102E600069017A010E94CD188AEF95E099838883E1
:102E7000FE01EC5FFE4FC082D182E282F382CE017E
:102E8000885F9E4F0E944C30D093061DC093051D55
:102E9000DF91CF91FF90EF90DF90CF9008950F9347
:102EA0001F93CF93DF93CDB7DEB72A970FB6F89471
:102EB000DEBF0FBECDBF8C01CE0101960E944C300B
:102EC000CE0101960E94EB309E012F5F3F4F40E004
:102ED00050E0BA01C8010E942319BE016F5F7F4F05
:102EE000C801885F9E4F0E94AE308CEB9AE09A83B7
:102EF0008983CE0101960E94B04A2A960FB6F894B3
:102F0000DEBF0FBECDBFDF91CF911F910F9108950E
:102F10008091051D9091061D0C944F17CF92DF9262
:102F2000EF92FF928C5F9E4FFC01208131814281A4
:102F3000538180E1809381001092800060E071E70E
:102F400082E090E00E94155D6B017C0124E130E09D
:102F500040E050E00E94255D21153105F1E04F076A
:102F6000510520F481E080930D1D11C0211531051C
:102F700088E04807510580F482E080930D1DC70169
:102F8000B60120EA30E040E050E00E94255D309339
:102F90000F1D20930E1D35C021153105E0E44E07AD
:102FA000510550F483E080930D1DC701B60120E068
:102FB00035E040E050E0E9CF211531054105F1E071
:102FC0005F0750F484E080930D1DC701B60120E037
:102FD00034E140E050E0D9CF85E080930D1D21150C
:102FE00031054105544038F4C701B60120E030E511
:102FF00040E050E0CACF8FEF9FEF90930F1D80937A
:103000000E1D80910E1D90910F1D9093870080934F
:10301000860080910D1D80618093810088E897E192
:1030200090931F0280931E0281E080936F001092A4
:103030008100109285001092840080910D1D8061A6
:1030400080938100FF90EF90DF90CF90089580E112
:103050008093810010926F000895EF92FF920F937A
:103060001F93CF93DF938C018EE796E0F801918355
:1030700080837801F2E8EF0EF11CE114F10481F095
:10308000E801CC5FDE4FCE15DF0551F0C258D10903
:10309000E881F9810280F381E02DCE011995F3CF0B
:1030A000C801DF91CF911F910F91FF90EF900C9489
:1030B000F334CF93DF93EC010E942D18CE01DF9102
:1030C000CF910C94F121AF92BF92CF92DF92EF9209
:1030D000FF920F931F93CF93DF93EC016A017B0163
:1030E0005901141615061606170654F48A019B0199
:1030F00042E250E060E070E080E096E00E946C44C4
:103100008FEFC81AD80A22E82C9DC0012D9D900D82
:103110001124B5018C0F9D1FDF91CF911F910F914D
:10312000FF90EF90DF90CF90BF90AF900C94313232
:10313000AF92BF92CF92DF92EF92FF920F931F93C5
:10314000CF93DF93EC016A017B0159011416150638
:103150001606170654F48A019B0142E350E060E032
:1031600070E080E096E00E946C448FEFC81AD80AA5
:1031700022E82C9DC0012D9D900D1124B5018C0FCE
:103180009D1FDF91CF911F910F91FF90EF90DF90E6
:10319000CF90BF90AF900C94DC3FCF93DF93EC01C6
:1031A0000E9404358EE796E099838883CE018E577E
:1031B0009F4FDF91CF910C942132EF92FF920F93AA
:1031C0001F93CF93DF93CDB7DEB7C055D1090FB6AC
:1031D000F894DEBF0FBECDBF8C010E941D35780173
:1031E00082E8E80EF11CC7010E94D9321F921F929B
:1031F0001F921F920E5F1F4F1F930F938DE093E05E
:103200009F938F931F9280E58F938E010F5F1F4FC7
:103210001F930F930E94A35FB801C7010E94194139
:103220000FB6F894DEBF0FBECDBFC05BDF4F0FB649
:10323000F894DEBF0FBECDBFDF91CF911F910F91EC
:10324000FF90EF900895AF92BF92CF92DF92EF92EE
:10325000FF920F931F93CF93DF93EC016A017B01E1
:103260005901141615061606170654F48A019B0117
:103270004AE750E060E070E080E096E00E946C4435
:103280008FEFC81AD80A22E82C9DC0012D9D900D01
:103290001124B5018C0F9D1FDF91CF911F910F91CC
:1032A000FF90EF90DF90CF90BF90AF900C94523290
:1032B00061E070E080E090E00895CF92DF92EF92BD
:1032C000FF920F931F93CF93DF93EC016A017B0171
:1032D000141615061606170654F48A019B0144E9D4
:1032E00050E060E070E080E096E00E946C448FEF78
:1032F000C81AD80A22E82C9DC0012D9D900D1124DA
:103300008C0F9D1FDF91CF911F910F91FF90EF9038
:10331000DF90CF900C949B404F925F926F927F9280
:103320008F929F92AF92BF92CF92DF92EF92FF92D5
:103330000F931F93CF93DF935C01EB0129013A01B7
:10334000E881F9810084F185E02DCB0119954C01CC
:10335000CE010E94C5589B01AC0168018301720136
:10336000B401C5010E94811BDF91CF911F910F9184
:10337000FF90EF90DF90CF90BF90AF909F908F9095
:103380007F906F905F904F9008956F927F928F9291
:103390009F92AF92BF92CF92DF92EF92FF920F93E4
:1033A0001F93CF93DF9300D01F92CDB7DEB74C01B0
:1033B0005B017A016901DB01ED91FC910680F781E7
:1033C000E02DCB0119953C01D501ED91FC910480D4
:1033D000F581E02DC50119959B01AC0119821A8276
:1033E0001B821C828E010F5F1F4FB301C4010E941C
:1033F000281D009769F449815A816B817C81C50140
:103400000E941F59892B11F083E001C080E090E0F9
:103410000F900F900F900F90DF91CF911F910F9110
:10342000FF90EF90DF90CF90BF90AF909F908F90E4
:103430007F906F9008954F925F926F927F928F92DC
:103440009F92AF92BF92CF92DF92EF92FF920F9333
:103450001F93CF93DF93EC016B0149015A012701C0
:103460003801121613061406150654F089019A0144
:103470004AE250E060E070E084E896E00E946C442C
:10348000141415041604170454F0950184014BE23A
:1034900050E060E070E084E896E00E946C448301B4
:1034A0007201A5019401B601CE010E94821ADF913A
:1034B000CF911F910F91FF90EF90DF90CF90BF9031
:1034C000AF909F908F907F906F905F904F900895F6
:1034D00090930C1D80930B1D08956091071D7091B2
:1034E000081D8091091D90910A1D08950496089564
:1034F00028EE36E0FC013183208313821282049689
:103500000C94371E2F923F924F925F926F927F9250
:103510008F929F92AF92BF92CF92DF92EF92FF92E3
:103520000F931F93CF93DF931C0149015A01270189
:103530003801DC011296CD91DC911397209739F078
:10354000CE0101960E94861ECE010E94F12183E1E8
:1035500090E00E94ED21EC01FC0111926F01CF017E
:103560000E94721E2097F1F093018201B501A4011F
:10357000C6010E94881E88838823A1F0F101D383AD
:10358000C28380910B1D90910C1D009741F0DC01CE
:10359000ED91FC910190F081E02DB101199580E051
:1035A00090E002C082E090E0DF91CF911F910F91F7
:1035B000FF90EF90DF90CF90BF90AF909F908F9053
:1035C0007F906F905F904F903F902F9008954F9213
:1035D0005F926F927F928F929F92AF92BF92CF92A3
:1035E000DF92EF92FF920F931F93CF93DF93EC0143
:1035F0006B0149015A01270138018881811108C0F6
:1036000048E550E060E070E082EB96E00E94ED4318
:1036100083017201A5019401B601CE0101960E94B9
:10362000CB1E811103C088E090E002C080E090E0F2
:10363000DF91CF911F910F91FF90EF90DF90CF908E
:10364000BF90AF909F908F907F906F905F904F90C2
:1036500008954F925F926F927F928F929F92AF9256
:10366000BF92CF92DF92EF92FF920F931F93CF936F
:10367000DF93EC016B0149015A0127013801888170
:10368000811108C047E650E060E070E082EB96E010
:103690000E94ED432196CE010E94641F882349F0C9
:1036A0004CE650E060E070E082EB96E00E94ED4373
:1036B000F2CF83017201A5019401B601CE010E94EF
:1036C000CB1E81110BC000E010E0980144E750E0F0
:1036D00060E070E082EB96E00E946C4480E090E055
:1036E000DF91CF911F910F91FF90EF90DF90CF90DE
:1036F000BF90AF909F908F907F906F905F904F9012
:1037000008952F923F924F925F926F927F928F9285
:103710009F92AF92BF92CF92DF92EF92FF920F9360
:103720001F93CF93DF93FC01C281D3812097B9F01F
:1037300088818823A1F061157105A1F057FD2AC089
:103740001701280149015A013B01CE0101960E944F
:10375000921F681579058A059B05E0F006C082E096
:1037600090E01AC087E090E017C0CA94CD2849F4D1
:1037700082017101A5019401B301CE010E94E71AF3
:103780000BC082017101A5019401B301CE010E9419
:10379000291B02C083E090E0DF91CF911F910F9130
:1037A000FF90EF90DF90CF90BF90AF909F908F9061
:1037B0007F906F905F904F903F902F9008954F9221
:1037C0005F926F927F92AF92BF92CF92DF92EF9211
:1037D000FF920F931F93CF93DF93CDB7DEB7289758
:1037E0000FB6F894DEBF0FBECDBF6C015B0129019F
:1037F0003A01FC018081811108C041E950E060E09C
:1038000070E082EB96E00E94ED434D825E826F8213
:10381000788619821A821B821C829E012F5F3F4F7D
:10382000AE014B5F5F4FB501C60101960E94351F87
:103830004D815E816F817885F801882371F0408326
:1038400051836283738389819A81AB81BC81F70143
:1038500080839183A283B38315C010821182128268
:103860001382441655066606770678F0452B462BDC
:10387000472B71F049EA50E060E070E082EB96E09F
:103880000E94ED4380E090E005C083E090E002C03C
:1038900081E090E028960FB6F894DEBF0FBECDBF52
:1038A000DF91CF911F910F91FF90EF90DF90CF901C
:1038B000BF90AF907F906F905F904F9008954F9220
:1038C0005F926F927F92AF92BF92CF92DF92EF9210
:1038D000FF920F931F93CF93DF93CDB7DEB7289757
:1038E0000FB6F894DEBF0FBECDBF6C015B0129019E
:1038F0003A01FC018081811108C040EB50E060E09A
:1039000070E082EB96E00E94ED43FFEFCF1ADF0AF2
:103910004D825E826F82788619821A821B821C8297
:10392000C6010E94791F882349F048EB50E060E00F
:1039300070E082EB96E00E94ED43F2CF9E012F5F94
:103940003F4FAE014B5F5F4FB501C6010E94351F6F
:103950004D815E816F817885F801882371F0408305
:1039600051836283738389819A81AB81BC81F70122
:1039700080839183A283B38311C01082118212824B
:103980001382441655066606770658F04BEC50E055
:1039900060E070E082EB96E00E94ED4380E090E012
:1039A00002C083E090E028960FB6F894DEBF0FBE09
:1039B000CDBFDF91CF911F910F91FF90EF90DF90DE
:1039C000CF90BF90AF907F906F905F904F90089591
:1039D000FC0182819381009739F0FC012081222330
:1039E00019F001960C94861F60E070E0CB010895F9
:1039F000FC0182819381009739F0FC012081222310
:103A000019F001960C948C1F60E070E0CB010895D2
:103A1000FC0182819381009739F0FC0120812223EF
:103A200019F001960C94981F60E070E0CB010895A6
:103A3000FC0182819381009739F0FC0120812223CF
:103A400019F001960C94921F60E070E0CB0108958C
:103A50006F927F928F929F92AF92BF92CF92DF929E
:103A6000EF92FF920F931F93CF93DF93FC01C281DC
:103A7000D3812097D9F0E881EE23C1F036014901C6
:103A80005A016B010E94181D86169706A806B906F2
:103A900084F0A5019401B601CE016A94672819F457
:103AA0000E94DF1B08C00E945F1C05C082E090E0FE
:103AB00002C083E090E0DF91CF911F910F91FF90C2
:103AC000EF90DF90CF90BF90AF909F908F907F90BE
:103AD0006F9008950F931F93CF93DF93EC0188EEBF
:103AE00096E0998388830A811B810115110539F0BD
:103AF000C80101960E94861EC8010E94F1211B8206
:103B00001A82CE010496DF91CF911F910F910C94F0
:103B1000A01DCF93DF93EC010E946A1DCE01DF91BF
:103B2000CF910C94F12182E090E0089582E090E042
:103B300008950296089560E570E080E090E00895B1
:103B40002EE137E0FC01318320830C94375BCF9367
:103B5000DF93EC010E94A01DCE01DF91CF910C9468
:103B6000F12160E570E002960E94745FBC0180E084
:103B700090E00895CF92DF92EF92FF920F931F9300
:103B8000CF93DF93EC018B0169017A01672B41F43C
:103B90004DE250E060E070E08CEE96E00E94ED4374
:103BA000CE0102960817190739F0A601B8010E9444
:103BB000655FCF5ADF4F1882DF91CF911F910F9130
:103BC000FF90EF90DF90CF9008950F931F93CF93C6
:103BD000DF93EC018B010E942B5B8EE197E09983D0
:103BE000888320E530E040E050E0B801CE01DF916D
:103BF000CF911F910F910C94BA1D0F931F93CF93E8
:103C0000DF93EC018B010E942B5B8EE197E099839F
:103C10008883D801ED91FC910284F385E02DC801E1
:103C2000199520E530E040E050E0BC01CE01DF9185
:103C3000CF911F910F910C94BA1D0F931F93CF93A7
:103C4000DF93EC018B010E942B5B8EE197E099835F
:103C50008883B8016E5F7F4F20E530E040E050E0A0
:103C6000CE01DF91CF911F910F910C94BA1DCF938C
:103C7000DF93EC010E942B5B8EE197E099838883B0
:103C80001A82DF91CF910895EF92FF920F931F93C5
:103C9000CF93DF93EC018B01E881F981E684F7840F
:103CA0000088F189E02D19959B01AC01B8016E5F88
:103CB0007F4FCE01F7011995CE01DF91CF911F9172
:103CC0000F91FF90EF900895403551056105710502
:103CD00020F04FE450E060E070E0FC01E40FF51FDD
:103CE00012820895FC0111821082128213821482C2
:103CF0001582168217821086118612861386148604
:103D0000158616861786108A118A08950C946220EB
:103D10008F929F92AF92BF92CF92DF92EF92FF92DB
:103D20000F931F93CF93DF93EC016A017B0148014E
:103D3000590188819981892B19F0CE010E94622056
:103D4000088119810115110551F020E030E04BE2A6
:103D500050E060E070E080E397E00E946C448A826B
:103D60009B82AC82BD82CE82DF82E886F986950195
:103D70008401B701A601CE010E943220DF91CF91CC
:103D80001F910F91FF90EF90DF90CF90BF90AF9079
:103D90009F908F9008954F925F926F927F928F9233
:103DA0009F92AF92BF92CF92DF92EF92FF920F93CA
:103DB0001F93CF93DF93EC016B0149015A01270157
:103DC00038018A819B81AC81BD8182179307A4074A
:103DD000B50740F445E350E060E070E080E397E031
:103DE0000E94ED434A855B856C857D858E819F8130
:103DF000A885B985481759076A077B0711F480E041
:103E000023C083017201A5019401B601CE010E9475
:103E10007D208823A1F38A859B85AC85BD8501968D
:103E2000A11DB11D8A879B87AC87BD874E855F85A5
:103E300068897989481759076A077B0720F48E87B4
:103E40009F87A88BB98B81E0DF91CF911F910F9154
:103E5000FF90EF90DF90CF90BF90AF909F908F90AA
:103E60007F906F905F904F900895CF92DF92EF9286
:103E7000FF92CF93DF93FC01C284D384E484F58462
:103E8000CD28CE28CF2831F4FA0110821182128277
:103E9000138212C0EC010E94C120882369F08A8538
:103EA0009B85AC85BD850197A109B1098A879B8750
:103EB000AC87BD8781E001C080E0DF91CF91FF90AA
:103EC000EF90DF90CF9008950F931F93FC0181E056
:103ED00002851385248535854681578160857185E6
:103EE000041715072607370709F080E01F910F9187
:103EF000089521E0FC0182859385A485B585892BF1
:103F00008A2B8B2B09F020E0822F0895FC0162851B
:103F10007385848595850895FC01668577858089FC
:103F200091890895FC01628173818481958108954E
:103F3000FC0166817781808591850895CF93DF9319
:103F4000EC01CB01BA012E813F81488559850E9441
:103F5000255D9B01AC018A819B81AC81BD81BC0147
:103F6000CD016C5F7F4F8F4F9F4F0E94155DDF919A
:103F7000CF910895CF92DF92EF92FF920F931F930C
:103F8000F801EC0DFD1D208331834283538384E0CF
:103F9000C80ED11CE11CF11CC00ED11EA901C60126
:103FA0000E945C5FC816D90671F042E850E060E0FC
:103FB00070E080E397E01F910F91FF90EF90DF900A
:103FC000CF900C94ED431F910F91FF90EF90DF90F5
:103FD000CF9008958F929F92AF92BF92EF92FF92EF
:103FE0000F931F93CF93DF93EB01FA01D901AE0D2D
:103FF000BF1D4D915D916D917C9180809180A280DB
:10400000B38084169506A606B70630F44083518324
:104010006283738380E01BC0D801C7014083518352
:10402000628373830496A11DB11D820F931FBC018F
:10403000CE010E945C5FC817D90741F049E950E002
:1040400060E070E080E397E00E94ED4381E0DF9163
:10405000CF911F910F91FF90EF90BF90AF909F90E5
:104060008F9008950F931F93CF93DF93EC010C5F14
:104070001F4F2F4F3F4F049FC001059F900D149F6E
:10408000900D11240E94EF218C01892B11F480E006
:1040900014C08AE090E00E94ED21FC010097B9F382
:1040A0001183008312821382148215821682178272
:1040B000108611869983888381E0DF91CF911F91CB
:1040C0000F9108950F931F93CF93DF938C01FC0101
:1040D000C081D181209749F088819981009711F0A2
:1040E0000E94F321CE010E94F121F8011182108279
:1040F000DF91CF911F910F9108954F925F926F9230
:104100007F928F929F92AF92BF92CF92DF92EF9267
:10411000FF920F931F93CF93DF935C014B01290113
:104120003A01FC01C081D181088119814E815F81F2
:10413000688579850E949E1F6B017C01A301920115
:10414000B401C5010E94BA1F8E819F81A885B985DF
:104150000196A11DB11D8E839F83A887B98781E039
:10416000DF91CF911F910F91FF90EF90DF90CF9053
:10417000BF90AF909F908F907F906F905F904F9087
:1041800008956F927F928F929F92AF92BF92CF923B
:10419000DF92EF92FF920F931F93CF93DF933C0137
:1041A0006B015A01FC01C081D181888099804A81CC
:1041B0005B816C817D810E949E1F7B018C0194013B
:1041C000A501B601C3010E94EA1F882369F08A8114
:1041D0009B81AC81BD810196A11DB11D8A839B830A
:1041E000AC83BD8381E001C080E0DF91CF911F915E
:1041F0000F91FF90EF90DF90CF90BF90AF909F9086
:104200008F907F906F900895CF93DF93FC0180E0B3
:1042100090E0DC0120E0EF01C453DF4F31E0468144
:1042200057814617570709F030E0232B61F083369A
:104230009105A105B10529F0408551855783468335
:1042400002C0198218820196A11DB11D32968436D2
:104250009105A105B10511F7DF91CF91089523EBE9
:1042600037E0FC01318320830C946036CF93DF93D9
:10427000EC010E942F21CE01DF91CF910C94F1210E
:104280000F931F93CF93DF93EC018B018A819B8166
:10429000AC81BD8184369105A105B10540F04DE1A9
:1042A00050E060E070E08DE697E00E94ED438A8187
:1042B0009B81AC81BD81FC013396EE0FFF1FEC0F9B
:1042C000FD1F118300830196A11DB11D8A839B836D
:1042D000AC83BD83DF91CF911F910F910895CF9350
:1042E000DF93EC010E945A3683EB97E09983888331
:1042F0001A821B821C821D82DE01A253BF4F1C92B8
:10430000FE01369611921192EA17FB07D9F7CE01FA
:10431000DF91CF910C94463682539F4FFC0110825F
:1043200008958F929F92AF92BF92CF92DF92EF92B9
:10433000FF920F931F93CF93DF936C017C018EEC60
:10434000E80EF11C81E0F7018083F701808188236A
:1043500099F18601812C912C5401F8018681978175
:10436000009719F10E944236EC01892B81F0ED8112
:10437000FE81309761F08881882349F08F8198858C
:104380001995F801868197810E9433368883FFEF63
:104390008F1A9F0AAF0ABF0A0E5F1F4F84E6881666
:1043A0009104A104B104C9F6D0CF89288A288B28AA
:1043B00061F6F7011082C9CFDF91CF911F910F9164
:1043C000FF90EF90DF90CF90BF90AF909F908F9035
:1043D00008950E94575F0E94575F0C94365E0C94BC
:1043E000365E0C94CE5E0C94CE5E08951F920F92B2
:1043F0000FB60F9211240BB60F922F933F934F934A
:104400005F936F937F938F939F93AF93BF93EF933C
:10441000FF93E0911E02F0911F021995FF91EF9119
:10442000BF91AF919F918F917F916F915F914F91CC
:104430003F912F910F900BBE0F900FBE0F901F90CA
:10444000189564E070E080E090E008950A96089581
:104450008F929F92AF92BF92CF92DF92EF92FF9294
:104460000F931F93CF93DF9300D01F92CDB7DEB78A
:104470007C018B010E94A54057018EE7A80EB11C5C
:10448000D5018D919C91892B41F444E450E060E08A
:1044900070E08BEB97E00E94ED434701B4E88B0E90
:1044A000911CF40180819181892B41F445E450E015
:1044B00060E070E08BEB97E00E94ED43BE016F5F20
:1044C0007F4FC8010E940F536C01892B91F4098121
:1044D0001A812B813C81F701E058FF4F40815181C7
:1044E00062817381D401ED91FC91D5018D919C91F4
:1044F0001995C6010F900F900F900F90DF91CF91FB
:104500001F910F91FF90EF90DF90CF90BF90AF90F1
:104510009F908F9008952BE038E0FC013183208339
:104520000C94C14ACF93DF93EC010E948B22CE0101
:10453000DF91CF910C94F12127E238E0FC01318327
:1045400020830C94693FCF93DF93EC010E949C225F
:10455000CE01DF91CF910C94F12129E138E0FC01EB
:10456000318320830C94303FCF93DF93EC010E9482
:10457000AD22CE01DF91CF910C94F121CF93DF9347
:10458000EC010E94163F89E198E099838883CC571B
:10459000DF4F19821882DF91CF910895EF92FF9239
:1045A0000F931F93CF93DF93EC018B017A01672B5D
:1045B00041F44BE250E060E070E08BEB97E00E944A
:1045C000ED43E114F10441F44CE250E060E070E0AE
:1045D0008BEB97E00E94ED43FE01E258FF4F118301
:1045E00000833696F182E082C658DF4F1983088334
:1045F000DF91CF911F910F91FF90EF9008958F92CF
:104600009F92AF92BF92EF92FF920F931F93CF931F
:10461000DF93EC014A015B010E94A5407E018EE719
:10462000E80EF11CD7018D919C91892B41F449E34F
:1046300050E060E070E08BEB97E00E94ED438E016C
:104640000C571F4FF80180819181892B41F44AE377
:1046500050E060E070E08BEB97E00E94ED43C058C3
:10466000DF4F488159816A817B81D801ED91FC91AE
:1046700095018401D7018D919C911995DF91CF917E
:104680001F910F91FF90EF90BF90AF909F908F90F0
:104690000895CF93DF93EC010E94CC3F87E298E02E
:1046A00099838883C058DF4F19821882DF91CF9198
:1046B00008950F931F93CF93DF93EC018B01672B2A
:1046C00041F44EE550E060E070E08BEB97E00E9433
:1046D000ED43FE01E058FF4F1183008336971183AD
:1046E0000083C258DF4F19821882DF91CF911F914A
:1046F0000F9108958F929F92AF92BF92EF92FF9287
:104700000F931F93CF93DF93CDB7DEB72E970FB6DE
:10471000F894DEBF0FBECDBF8C014A015B010E9441
:10472000A540780180E8E80EF11CD7018D919C919D
:10473000892B79F4F801E258FF4F80819181892B10
:1047400041F44DE650E060E070E08BEB97E00E94B2
:10475000ED43F70180819181009729F0B501A40113
:104760000E94FF2242C07801FEE7EF0EF11CD70144
:104770008D919C91892BC9F1CE0101960E94B34A7B
:104780008BE098E09A838983B501A401CE0101965C
:104790000E94CE4C009759F08C0120E030E049E7B0
:1047A00050E060E070E08BEB97E00E946C44F70112
:1047B00080819181DC01ED91FC910084F185E02DF7
:1047C000BE016F5F7F4F1995009759F08C0120E073
:1047D00030E04CE750E060E070E08BEB97E00E9447
:1047E0006C44CE0101960E948B222E960FB6F8944F
:1047F000DEBF0FBECDBFDF91CF911F910F91FF9014
:10480000EF90BF90AF909F908F9008950C94673F6A
:104810000C941C4068E770E080E090E008950A96F0
:10482000089523E638E0FC01318320830C94C14ACB
:10483000CF93DF93EC010E941124CE01DF91CF9141
:104840000C94F121CF92DF92EF92FF920F931F937E
:10485000CF93DF93EC018B0169017A010E94B34A87
:1048600083E698E099838883A7019601B801CE0179
:104870000E94CB58009759F08C0120E030E048E0CE
:1048800050E060E070E08FE298E00E946C44DF91BD
:10489000CF911F910F91FF90EF90DF90CF900895EF
:1048A000CF93DF93EC010E94B34A83E698E09983AB
:1048B0008883DF91CF9108950F931F93CF93DF9358
:1048C000EC018B010E94B34A83E698E099838883C8
:1048D000C8010E94C5589B01AC01B801665F7F4FBB
:1048E000CE010E94CB58009759F08C0120E030E0B7
:1048F00043E150E060E070E08FE298E00E946C4499
:10490000DF91CF911F910F9108950F931F93CF9334
:10491000DF938C01EB01CB010E94C5589B01AC01D8
:10492000BE01665F7F4FC8010E94CB58009759F0C7
:104930008C0120E030E048E150E060E070E08FE280
:1049400098E00E946C44CE01DF91CF911F910F91AE
:10495000089569E870E080E090E008950A9608956F
:1049600028EB38E0FC01318320830C94C14ACF93BB
:10497000DF93EC010E94B024CE01DF91CF910C9423
:10498000F12124ED38E0FC01318320830C94693F50
:10499000CF93DF93EC010E94C124CE01DF91CF9130
:1049A0000C94F12126EC38E0FC01318320830C9437
:1049B000303FCF93DF93EC010E94D224CE01DF91F0
:1049C000CF910C94F121CF93DF93EC010E94163F1D
:1049D00086EC98E099838883CC57DF4F1982188240
:1049E000DF91CF910895EF92FF920F931F93CF9392
:1049F000DF93EC018B017A01672B41F44BE250E02D
:104A000060E070E08DE698E00E94ED43E114F1046F
:104A100041F44CE250E060E070E08DE698E00E94E6
:104A2000ED43FE01E258FF4F118300833696F18279
:104A3000E082C658DF4F19830883DF91CF911F9121
:104A40000F91FF90EF9008954F925F926F927F9237
:104A50008F929F92AF92BF92CF92DF92EF92FF928E
:104A60000F931F93CF93DF93EC014A015B01390150
:104A70000E94A5402E018EE7480E511CD2018D9157
:104A80009C91892B41F449E350E060E070E08DE6B1
:104A900098E00E94ED437E01B4E8EB0EF11CF701B3
:104AA00080819181892B41F44AE350E060E070E01D
:104AB0008DE698E00E94ED43C058DF4F4881598150
:104AC0006A817B81D701ED91FC91680173019501A9
:104AD0008401D2018D919C911995DF91CF911F9105
:104AE0000F91FF90EF90DF90CF90BF90AF909F908D
:104AF0008F907F906F905F904F900895CF93DF934A
:104B0000EC010E94CC3F84ED98E099838883C058E3
:104B1000DF4F19821882DF91CF9108950F931F9371
:104B2000CF93DF93EC018B01672B41F44AE650E011
:104B300060E070E08DE698E00E94ED43FE01E058F1
:104B4000FF4F11830083369711830083C258DF4FD4
:104B500019821882DF91CF911F910F9108954F9282
:104B60005F926F927F92AF92BF92CF92DF92EF925D
:104B7000FF920F931F93CF93DF93CDB7DEB7C35947
:104B8000D1090FB6F894DEBF0FBECDBF7C012A015C
:104B90003B01590168010E94A540870100581F4F41
:104BA000D8018D919C91892B79F4F701E258FF4F40
:104BB00080819181892B41F449E750E060E070E009
:104BC0008DE698E00E94ED43F80180819181009785
:104BD00039F086019501B301A2010E94242566C027
:104BE000FEE7EF0EF11CD7018D919C91892B09F402
:104BF0005DC0CE0101960E94B34A88EB98E09A838B
:104C00008983B301A201CE0101960E94CE4C009788
:104C100059F08C0120E030E045E850E060E070E0C1
:104C20008DE698E00E946C44B501CE0101960E9489
:104C30001251009759F08C0120E030E048E850E034
:104C400060E070E08DE698E00E946C44B601CE0111
:104C500001960E941C51009759F08C0120E030E031
:104C60004BE850E060E070E08DE698E00E946C4414
:104C7000F70180819181DC01ED91FC910084F18547
:104C8000E02DBE016F5F7F4F1995009759F08C01A1
:104C900020E030E04EE850E060E070E08DE698E023
:104CA0000E946C44CE0101960E94B024CD56DF4F85
:104CB0000FB6F894DEBF0FBECDBFDF91CF911F912D
:104CC0000F91FF90EF90DF90CF90BF90AF907F90CB
:104CD0006F905F904F9008950C94673F8F929F92D2
:104CE000AF92BF92CF92DF92EF92FF920F931F93FA
:104CF000CF93DF93CDB7DEB7C359D1090FB6F89480
:104D0000DEBF0FBECDBF7C015B010E94A540470105
:104D10008EE7880E911CD4018D919C91892B41F4D2
:104D200044E450E060E070E08DE698E00E94ED43DE
:104D30006701B4E8CB0ED11CF60180819181892BEB
:104D400041F445E450E060E070E08DE698E00E94B8
:104D5000ED43BE0160577F4FC5010E940F5300977E
:104D600009F044C0CE018D579F4F0E945139BE01BA
:104D70006D577F4FC5010E947F58009781F5CE0186
:104D800001960E945024BE016F5F7F4FC5010E94B3
:104D900047595C01892BE9F4C057DF4F088119811D
:104DA0002A813B81C059D040F701E058FF4F408134
:104DB000518162817381D601ED91FC91CE01019602
:104DC0006C01DE01AD57BF4F7D01D4018D919C91E7
:104DD0001995CE0101960E941124750101C07C0134
:104DE000CE018D579F4F0E94D83801C07C01C7016A
:104DF000CD56DF4F0FB6F894DEBF0FBECDBFDF91AB
:104E0000CF911F910F91FF90EF90DF90CF90BF90C7
:104E1000AF909F908F9008950C941C4068E770E0CD
:104E200080E090E008950A96089520E139E0FC01C1
:104E3000318320830C94C14ACF93DF93EC010E940D
:104E40001527CE01DF91CF910C94F121CF92DF9203
:104E5000EF92FF920F931F93CF93DF93EC018B019F
:104E600069017A010E94B34A80E199E099838883BD
:104E7000A7019601B801CE010E94CB58009759F0C6
:104E80008C0120E030E048E050E060E070E08CED24
:104E900098E00E946C44DF91CF911F910F91FF9099
:104EA000EF90DF90CF900895CF93DF93EC010E94B5
:104EB000B34A80E199E099838883DF91CF91089587
:104EC0000F931F93CF93DF93EC018B010E94B34AA2
:104ED00080E199E099838883C8010E94C5589B01AD
:104EE000AC01B801665F7F4FCE010E94CB5800979E
:104EF00059F08C0120E030E043E150E060E070E0E8
:104F00008CED98E00E946C44DF91CF911F910F913E
:104F100008950F931F93CF93DF938C01EB01CB0187
:104F20000E94C5589B01AC01BE01665F7F4FC8015E
:104F30000E94CB58009759F08C0120E030E048E106
:104F400050E060E070E08CED98E00E946C44CE018F
:104F5000DF91CF911F910F9108950296089560E01F
:104F600071E080E090E0089522E539E0FC013183B2
:104F700020830C94375BCF93DF93EC010E94B4271E
:104F8000CE01DF91CF910C94F12160E071E00296A7
:104F90000E94745FBC0180E090E00895CF92DF92A0
:104FA000EF92FF920F931F93CF93DF93EC018B014E
:104FB00069017A01672B41F447E250E060E070E05C
:104FC0008AE199E00E94ED43CE0102960817190785
:104FD00039F0A601B8010E94655FCF5FDE4F1882ED
:104FE000DF91CF911F910F91FF90EF90DF90CF90C5
:104FF0000895EF92FF920F93CF93DF937B01EC0123
:10500000229660E071E0CE010E94745F9C0140E056
:1050100050E000E0BE01C7010E94B450DF91CF9183
:105020000F91FF90EF9008950F931F93CF93DF930D
:1050300000D01F92CDB7DEB78C01CB0140E051E02C
:1050400060E070E049835A836B837C83B8016E5FB4
:105050007F4F20E0AE014F5F5F4F0E94B7574981FD
:105060005A816B817C814F3F51056105710529F0A3
:1050700020F04FEF50E060E070E0F801E40FF51F22
:1050800012820F900F900F900F90DF91CF911F9190
:105090000F9108950F931F93CF93DF93EC018B0132
:1050A0000E942B5B82E599E09983888320E031E0C0
:1050B00040E050E0B801CE01DF91CF911F910F91F8
:1050C0000C94CE270F931F93CF93DF93EC018B01AA
:1050D0000E942B5B82E599E099838883D801ED914A
:1050E000FC910284F385E02DC801199520E031E0A0
:1050F00040E050E0BC01CE01DF91CF911F910F91B4
:105100000C94CE270F931F93CF93DF93EC018B0169
:105110000E942B5B82E599E099838883B8016E5FDA
:105120007F4F20E031E040E050E0CE01DF91CF91B1
:105130001F910F910C94CE27CF93DF93EC010E9427
:105140002B5B82E599E0998388831A82DF91CF9166
:1051500008954F3F51056105710529F020F04FEF8B
:1051600050E060E070E0FC01E40FF51F128208954A
:10517000EF92FF920F931F93CF93DF93EC018B017C
:10518000E881F981E684F7840088F189E02D19959A
:105190009B01AC01B8016E5F7F4FCE01F7011995FD
:1051A000CE01DF91CF911F910F91FF90EF90089565
:1051B0006DE870E080E090E008950A9608952FEA87
:1051C00039E0FC01318320830C94C14ACF93DF93F3
:1051D000EC010E94DF28CE01DF91CF910C94F121E8
:1051E0002BEC39E0FC01318320830C94693FCF9391
:1051F000DF93EC010E94F028CE01DF91CF910C9457
:10520000F1212DEB39E0FC01318320830C94303FF8
:10521000CF93DF93EC010E940129CE01DF91CF9162
:105220000C94F121CF93DF93EC010E94163F8DEB9C
:1052300099E099838883CC57DF4F19821882DF91D8
:10524000CF910895EF92FF920F931F93CF93DF9327
:10525000EC018B017A01672B41F44BE250E060E0F6
:1052600070E084E699E00E94ED43E114F10441F41A
:105270004CE250E060E070E084E699E00E94ED438B
:10528000FE01E258FF4F118300833696F182E082DF
:10529000C658DF4F19830883DF91CF911F910F917B
:1052A000FF90EF9008952F923F924F925F926F92EE
:1052B0007F928F929F92AF92BF92CF92DF92EF92A6
:1052C000FF920F931F93CF93DF93EC012A013B01D1
:1052D000490168010E94A5401E018EE7280E311C7D
:1052E000D1018D919C91892B41F449E350E060E01C
:1052F00070E084E699E00E94ED438E010C571F4F49
:10530000F80180819181892B41F44AE350E060E00B
:1053100070E084E699E00E94ED43C058DF4F488179
:1053200059816A817B81D801ED91FC91570174010B
:1053300093018201D1018D919C911995DF91CF91BB
:105340001F910F91FF90EF90DF90CF90BF90AF90A3
:105350009F908F907F906F905F904F903F902F9095
:105360000895CF93DF93EC010E94CC3F8BEC99E042
:1053700099838883C058DF4F19821882DF91CF91BB
:1053800008950F931F93CF93DF93EC018B01672B4D
:1053900041F440E750E060E070E084E699E00E946C
:1053A000ED43FE01E058FF4F1183008336971183D0
:1053B0000083C258DF4F19821882DF91CF911F916D
:1053C0000F9108954F925F926F927F928F929F926A
:1053D000AF92BF92CF92DF92EF92FF920F931F9303
:1053E000CF93DF93CDB7DEB7C759D1090FB6F89485
:1053F000DEBF0FBECDBF5C012A013B014901680140
:105400000E94A540850100581F4FD8018D919C91A5
:10541000892B79F4F501E258FF4F80819181892B26
:1054200041F44FE750E060E070E084E699E00E94CC
:10543000ED43F80180819181009739F08601940154
:10544000B301A2010E9453297AC0FEE7AF0EB11C3E
:10545000D5018D919C91892B09F471C0CE010196E3
:105460000E94B34A8FEA99E09A838983B301A2012B
:10547000CE0101960E94CE4C009759F08C0120E09D
:1054800030E04BE850E060E070E084E699E00E9494
:105490006C44B401CE0101960E941251009759F05C
:1054A0008C0120E030E04EE850E060E070E084E6FF
:1054B00099E00E946C44A60160E070E0CE01019684
:1054C0000E94574D009759F08C0120E030E041E9EF
:1054D00050E060E070E084E699E00E946C44B7011F
:1054E000CE0101960E941C51009759F08C0120E0DA
:1054F00030E044E950E060E070E084E699E00E942A
:105500006C44F50180819181DC01ED91FC91008476
:10551000F185E02DBE016F5F7F4F1995009759F01F
:105520008C0120E030E047E950E060E070E084E684
:1055300099E00E946C44CE0101960E94DF28C95672
:10554000DF4F0FB6F894DEBF0FBECDBFDF91CF9116
:105550001F910F91FF90EF90DF90CF90BF90AF9091
:105560009F908F907F906F905F904F9008950C94D4
:10557000673F2F923F924F925F926F927F928F92EE
:105580009F92AF92BF92CF92DF92EF92FF920F93D2
:105590001F93CF93DF93CDB7DEB7C759D1090FB6AD
:1055A000F894DEBF0FBECDBF3C014B010E94A54069
:1055B00013018EE7280E311CD1018D919C91892B0E
:1055C00041F444E450E060E070E084E699E00E9439
:1055D000ED432301B4E84B0E511CF201808191810F
:1055E000892B41F445E450E060E070E084E699E006
:1055F0000E94ED43BE016C567F4FC4010E940F53C1
:10560000009709F055C0CE018D579F4F0E94513928
:10561000BE016D577F4FC4010E947F58009709F06B
:1056200040C0BE0160577F4FC4010E94BA5300972B
:10563000C1F5C057DF4FC880D980EA80FB80C059D0
:10564000D040CE0101960E945427BE016F5F7F4F6C
:10565000C4010E9447594C01892BE9F4CC56DF4F15
:10566000088119812A813B81C459D040F301E05857
:10567000FF4F4081518162817381D201ED91FC9194
:10568000CE0101965C01DE01AD57BF4F7D01D10116
:105690008D919C911995CE0101960E941527840148
:1056A00001C08C01CE018D579F4F0E94D83801C098
:1056B0008C01C801C956DF4F0FB6F894DEBF0FBE8C
:1056C000CDBFDF91CF911F910F91FF90EF90DF90B1
:1056D000CF90BF90AF909F908F907F906F905F9092
:1056E0004F903F902F9008950C941C4065E171E01D
:1056F00080E090E008950A96089522E23AE0FC01E5
:10570000318320830C94C14ACF93DF93EC010E9434
:105710007D2BCE01DF91CF910C94F1212EE33AE065
:10572000FC01318320830C94693FCF93DF93EC011C
:105730000E948E2BCE01DF91CF910C94F12120E3BA
:105740003AE0FC01318320830C94303FCF93DF9308
:10575000EC010E949F2BCE01DF91CF910C94F1219F
:10576000CF93DF93EC010E94163F80E39AE0998388
:105770008883CC57DF4F19821882DF91CF9108952B
:10578000EF92FF920F931F93CF93DF93EC018B0166
:105790007A01672B41F44BE250E060E070E083ED6A
:1057A00099E00E94ED43E114F10441F44CE250E031
:1057B00060E070E083ED99E00E94ED43FE01E25865
:1057C000FF4F118300833696F182E082C658DF4F87
:1057D00019830883DF91CF911F910F91FF90EF9074
:1057E00008952F923F924F925F926F927F928F9285
:1057F0009F92AF92BF92CF92DF92EF92FF920F9360
:105800001F93CF93DF93EC012A013B01490168010B
:105810000E94A5401E018EE7280E311CD1018D91FA
:105820009C91892B41F449E350E060E070E083ED06
:1058300099E00E94ED438E010C571F4FF8018081C3
:105840009181892B41F44AE350E060E070E083ED00
:1058500099E00E94ED43C058DF4F488159816A8129
:105860007B81D801ED91FC91570174019301820174
:10587000D1018D919C911995DF91CF911F910F913D
:10588000FF90EF90DF90CF90BF90AF909F908F9060
:105890007F906F905F904F903F902F900895CF939F
:1058A000DF93EC010E94CC3F8EE39AE099838883DA
:1058B000C058DF4F19821882DF91CF9108950F935E
:1058C0001F93CF93DF93EC018B01672B41F440E7EB
:1058D00050E060E070E083ED99E00E94ED43FE014E
:1058E000E058FF4F11830083369711830083C2581D
:1058F000DF4F19821882DF91CF911F910F91089588
:105900004F925F926F927F928F929F92AF92BF92CF
:10591000CF92DF92EF92FF920F931F93CF93DF937B
:10592000CDB7DEB7CF51D1400FB6F894DEBF0FBE72
:10593000CDBF5C012A013B01490168010E94A540DD
:10594000850100581F4FD8018D919C91892B79F4C6
:10595000F501E258FF4F80819181892B41F44FE797
:1059600050E060E070E083ED99E00E94ED43F801C3
:1059700080819181009739F086019401B301A201E1
:105980000E94F12B7AC0FEE7AF0EB11CD5018D91BC
:105990009C91892B09F471C0CE0101960E94B34AF3
:1059A00082E29AE09A838983B301A201CE01019633
:1059B0000E94CE4C009759F08C0120E030E04BE87B
:1059C00050E060E070E083ED99E00E946C44B40127
:1059D000CE0101960E941251009759F08C0120E0EF
:1059E00030E04EE850E060E070E083ED99E00E9426
:1059F0006C44A60160E070E0CE0101960E94574D14
:105A0000009759F08C0120E030E041E950E060E07F
:105A100070E083ED99E00E946C44B701CE010196DD
:105A20000E941251009759F08C0120E030E044E9C7
:105A300050E060E070E083ED99E00E946C44F50175
:105A400080819181DC01ED91FC910084F185E02D54
:105A5000BE016F5F7F4F1995009759F08C0120E0D0
:105A600030E047E950E060E070E083ED99E00E94AB
:105A70006C44CE0101960E947D2BC15EDE4F0FB6B5
:105A8000F894DEBF0FBECDBFDF91CF911F910F9174
:105A9000FF90EF90DF90CF90BF90AF909F908F904E
:105AA0007F906F905F904F9008950C94673F2F9276
:105AB0003F924F925F926F927F928F929F92AF929E
:105AC000BF92CF92DF92EF92FF920F931F93CF93EB
:105AD000DF93CDB7DEB7C751D1400FB6F894DEBF24
